{"abi":[{"type":"constructor","inputs":[{"name":"_registry","type":"address","internalType":"address"}],"stateMutability":"nonpayable"},{"type":"function","name":"DOMAIN_SEPARATOR","inputs":[],"outputs":[{"name":"","type":"bytes32","internalType":"bytes32"}],"stateMutability":"view"},{"type":"function","name":"allowance","inputs":[{"name":"owner","type":"address","internalType":"address"},{"name":"spender","type":"address","internalType":"address"}],"outputs":[{"name":"","type":"uint256","internalType":"uint256"}],"stateMutability":"view"},{"type":"function","name":"approve","inputs":[{"name":"spender","type":"address","internalType":"address"},{"name":"value","type":"uint256","internalType":"uint256"}],"outputs":[{"name":"","type":"bool","internalType":"bool"}],"stateMutability":"nonpayable"},{"type":"function","name":"authority","inputs":[],"outputs":[{"name":"","type":"address","internalType":"address"}],"stateMutability":"view"},{"type":"function","name":"balanceOf","inputs":[{"name":"account","type":"address","internalType":"address"}],"outputs":[{"name":"","type":"uint256","internalType":"uint256"}],"stateMutability":"view"},{"type":"function","name":"beforeYtTransfer","inputs":[{"name":"_from","type":"address","internalType":"address"},{"name":"_to","type":"address","internalType":"address"}],"outputs":[],"stateMutability":"nonpayable"},{"type":"function","name":"claimFees","inputs":[{"name":"_minAssets","type":"uint256","internalType":"uint256"}],"outputs":[{"name":"assets","type":"uint256","internalType":"uint256"}],"stateMutability":"nonpayable"},{"type":"function","name":"claimRewards","inputs":[{"name":"_data","type":"bytes","internalType":"bytes"}],"outputs":[],"stateMutability":"nonpayable"},{"type":"function","name":"claimYield","inputs":[{"name":"_receiver","type":"address","internalType":"address"},{"name":"_minAssets","type":"uint256","internalType":"uint256"}],"outputs":[{"name":"yieldInAsset","type":"uint256","internalType":"uint256"}],"stateMutability":"nonpayable"},{"type":"function","name":"claimYieldInIBT","inputs":[{"name":"_receiver","type":"address","internalType":"address"},{"name":"_minIBT","type":"uint256","internalType":"uint256"}],"outputs":[{"name":"yieldInIBT","type":"uint256","internalType":"uint256"}],"stateMutability":"nonpayable"},{"type":"function","name":"convertToPrincipal","inputs":[{"name":"underlyingAmount","type":"uint256","internalType":"uint256"}],"outputs":[{"name":"","type":"uint256","internalType":"uint256"}],"stateMutability":"view"},{"type":"function","name":"convertToUnderlying","inputs":[{"name":"principalAmount","type":"uint256","internalType":"uint256"}],"outputs":[{"name":"","type":"uint256","internalType":"uint256"}],"stateMutability":"view"},{"type":"function","name":"decimals","inputs":[],"outputs":[{"name":"","type":"uint8","internalType":"uint8"}],"stateMutability":"view"},{"type":"function","name":"deposit","inputs":[{"name":"assets","type":"uint256","internalType":"uint256"},{"name":"ptReceiver","type":"address","internalType":"address"},{"name":"ytReceiver","type":"address","internalType":"address"}],"outputs":[{"name":"shares","type":"uint256","internalType":"uint256"}],"stateMutability":"nonpayable"},{"type":"function","name":"deposit","inputs":[{"name":"assets","type":"uint256","internalType":"uint256"},{"name":"receiver","type":"address","internalType":"address"}],"outputs":[{"name":"shares","type":"uint256","internalType":"uint256"}],"stateMutability":"nonpayable"},{"type":"function","name":"deposit","inputs":[{"name":"assets","type":"uint256","internalType":"uint256"},{"name":"ptReceiver","type":"address","internalType":"address"},{"name":"ytReceiver","type":"address","internalType":"address"},{"name":"minShares","type":"uint256","internalType":"uint256"}],"outputs":[{"name":"shares","type":"uint256","internalType":"uint256"}],"stateMutability":"nonpayable"},{"type":"function","name":"depositIBT","inputs":[{"name":"ibts","type":"uint256","internalType":"uint256"},{"name":"ptReceiver","type":"address","internalType":"address"},{"name":"ytReceiver","type":"address","internalType":"address"},{"name":"minShares","type":"uint256","internalType":"uint256"}],"outputs":[{"name":"shares","type":"uint256","internalType":"uint256"}],"stateMutability":"nonpayable"},{"type":"function","name":"depositIBT","inputs":[{"name":"ibts","type":"uint256","internalType":"uint256"},{"name":"receiver","type":"address","internalType":"address"}],"outputs":[{"name":"shares","type":"uint256","internalType":"uint256"}],"stateMutability":"nonpayable"},{"type":"function","name":"depositIBT","inputs":[{"name":"ibts","type":"uint256","internalType":"uint256"},{"name":"ptReceiver","type":"address","internalType":"address"},{"name":"ytReceiver","type":"address","internalType":"address"}],"outputs":[{"name":"shares","type":"uint256","internalType":"uint256"}],"stateMutability":"nonpayable"},{"type":"function","name":"eip712Domain","inputs":[],"outputs":[{"name":"fields","type":"bytes1","internalType":"bytes1"},{"name":"name","type":"string","internalType":"string"},{"name":"version","type":"string","internalType":"string"},{"name":"chainId","type":"uint256","internalType":"uint256"},{"name":"verifyingContract","type":"address","internalType":"address"},{"name":"salt","type":"bytes32","internalType":"bytes32"},{"name":"extensions","type":"uint256[]","internalType":"uint256[]"}],"stateMutability":"view"},{"type":"function","name":"flashFee","inputs":[{"name":"_token","type":"address","internalType":"address"},{"name":"_amount","type":"uint256","internalType":"uint256"}],"outputs":[{"name":"","type":"uint256","internalType":"uint256"}],"stateMutability":"view"},{"type":"function","name":"flashLoan","inputs":[{"name":"_receiver","type":"address","internalType":"contract IERC3156FlashBorrower"},{"name":"_token","type":"address","internalType":"address"},{"name":"_amount","type":"uint256","internalType":"uint256"},{"name":"_data","type":"bytes","internalType":"bytes"}],"outputs":[{"name":"","type":"bool","internalType":"bool"}],"stateMutability":"nonpayable"},{"type":"function","name":"getCurrentYieldOfUserInIBT","inputs":[{"name":"_user","type":"address","internalType":"address"}],"outputs":[{"name":"_yieldOfUserInIBT","type":"uint256","internalType":"uint256"}],"stateMutability":"view"},{"type":"function","name":"getDuration","inputs":[],"outputs":[{"name":"","type":"uint256","internalType":"uint256"}],"stateMutability":"view"},{"type":"function","name":"getIBT","inputs":[],"outputs":[{"name":"","type":"address","internalType":"address"}],"stateMutability":"view"},{"type":"function","name":"getIBTRate","inputs":[],"outputs":[{"name":"","type":"uint256","internalType":"uint256"}],"stateMutability":"view"},{"type":"function","name":"getIBTUnit","inputs":[],"outputs":[{"name":"","type":"uint256","internalType":"uint256"}],"stateMutability":"view"},{"type":"function","name":"getPTRate","inputs":[],"outputs":[{"name":"","type":"uint256","internalType":"uint256"}],"stateMutability":"view"},{"type":"function","name":"getTokenizationFee","inputs":[],"outputs":[{"name":"","type":"uint256","internalType":"uint256"}],"stateMutability":"view"},{"type":"function","name":"getTotalFeesInIBT","inputs":[],"outputs":[{"name":"","type":"uint256","internalType":"uint256"}],"stateMutability":"view"},{"type":"function","name":"getUnclaimedFeesInIBT","inputs":[],"outputs":[{"name":"","type":"uint256","internalType":"uint256"}],"stateMutability":"view"},{"type":"function","name":"getYT","inputs":[],"outputs":[{"name":"","type":"address","internalType":"address"}],"stateMutability":"view"},{"type":"function","name":"initialize","inputs":[{"name":"_ibt","type":"address","internalType":"address"},{"name":"_duration","type":"uint256","internalType":"uint256"},{"name":"_initialAuthority","type":"address","internalType":"address"}],"outputs":[],"stateMutability":"nonpayable"},{"type":"function","name":"isConsumingScheduledOp","inputs":[],"outputs":[{"name":"","type":"bytes4","internalType":"bytes4"}],"stateMutability":"view"},{"type":"function","name":"maturity","inputs":[],"outputs":[{"name":"","type":"uint256","internalType":"uint256"}],"stateMutability":"view"},{"type":"function","name":"maxDeposit","inputs":[{"name":"","type":"address","internalType":"address"}],"outputs":[{"name":"","type":"uint256","internalType":"uint256"}],"stateMutability":"view"},{"type":"function","name":"maxFlashLoan","inputs":[{"name":"_token","type":"address","internalType":"address"}],"outputs":[{"name":"","type":"uint256","internalType":"uint256"}],"stateMutability":"view"},{"type":"function","name":"maxRedeem","inputs":[{"name":"owner","type":"address","internalType":"address"}],"outputs":[{"name":"","type":"uint256","internalType":"uint256"}],"stateMutability":"view"},{"type":"function","name":"maxWithdraw","inputs":[{"name":"owner","type":"address","internalType":"address"}],"outputs":[{"name":"","type":"uint256","internalType":"uint256"}],"stateMutability":"view"},{"type":"function","name":"maxWithdrawIBT","inputs":[{"name":"owner","type":"address","internalType":"address"}],"outputs":[{"name":"","type":"uint256","internalType":"uint256"}],"stateMutability":"view"},{"type":"function","name":"name","inputs":[],"outputs":[{"name":"","type":"string","internalType":"string"}],"stateMutability":"view"},{"type":"function","name":"nonces","inputs":[{"name":"owner","type":"address","internalType":"address"}],"outputs":[{"name":"","type":"uint256","internalType":"uint256"}],"stateMutability":"view"},{"type":"function","name":"pause","inputs":[],"outputs":[],"stateMutability":"nonpayable"},{"type":"function","name":"paused","inputs":[],"outputs":[{"name":"","type":"bool","internalType":"bool"}],"stateMutability":"view"},{"type":"function","name":"permit","inputs":[{"name":"owner","type":"address","internalType":"address"},{"name":"spender","type":"address","internalType":"address"},{"name":"value","type":"uint256","internalType":"uint256"},{"name":"deadline","type":"uint256","internalType":"uint256"},{"name":"v","type":"uint8","internalType":"uint8"},{"name":"r","type":"bytes32","internalType":"bytes32"},{"name":"s","type":"bytes32","internalType":"bytes32"}],"outputs":[],"stateMutability":"nonpayable"},{"type":"function","name":"previewDeposit","inputs":[{"name":"assets","type":"uint256","internalType":"uint256"}],"outputs":[{"name":"","type":"uint256","internalType":"uint256"}],"stateMutability":"view"},{"type":"function","name":"previewDepositIBT","inputs":[{"name":"ibts","type":"uint256","internalType":"uint256"}],"outputs":[{"name":"","type":"uint256","internalType":"uint256"}],"stateMutability":"view"},{"type":"function","name":"previewRedeem","inputs":[{"name":"shares","type":"uint256","internalType":"uint256"}],"outputs":[{"name":"","type":"uint256","internalType":"uint256"}],"stateMutability":"view"},{"type":"function","name":"previewRedeemForIBT","inputs":[{"name":"shares","type":"uint256","internalType":"uint256"}],"outputs":[{"name":"","type":"uint256","internalType":"uint256"}],"stateMutability":"view"},{"type":"function","name":"previewWithdraw","inputs":[{"name":"assets","type":"uint256","internalType":"uint256"}],"outputs":[{"name":"","type":"uint256","internalType":"uint256"}],"stateMutability":"view"},{"type":"function","name":"previewWithdrawIBT","inputs":[{"name":"ibts","type":"uint256","internalType":"uint256"}],"outputs":[{"name":"","type":"uint256","internalType":"uint256"}],"stateMutability":"view"},{"type":"function","name":"redeem","inputs":[{"name":"shares","type":"uint256","internalType":"uint256"},{"name":"receiver","type":"address","internalType":"address"},{"name":"owner","type":"address","internalType":"address"},{"name":"minAssets","type":"uint256","internalType":"uint256"}],"outputs":[{"name":"assets","type":"uint256","internalType":"uint256"}],"stateMutability":"nonpayable"},{"type":"function","name":"redeem","inputs":[{"name":"shares","type":"uint256","internalType":"uint256"},{"name":"receiver","type":"address","internalType":"address"},{"name":"owner","type":"address","internalType":"address"}],"outputs":[{"name":"assets","type":"uint256","internalType":"uint256"}],"stateMutability":"nonpayable"},{"type":"function","name":"redeemForIBT","inputs":[{"name":"shares","type":"uint256","internalType":"uint256"},{"name":"receiver","type":"address","internalType":"address"},{"name":"owner","type":"address","internalType":"address"},{"name":"minIbts","type":"uint256","internalType":"uint256"}],"outputs":[{"name":"ibts","type":"uint256","internalType":"uint256"}],"stateMutability":"nonpayable"},{"type":"function","name":"redeemForIBT","inputs":[{"name":"shares","type":"uint256","internalType":"uint256"},{"name":"receiver","type":"address","internalType":"address"},{"name":"owner","type":"address","internalType":"address"}],"outputs":[{"name":"ibts","type":"uint256","internalType":"uint256"}],"stateMutability":"nonpayable"},{"type":"function","name":"setAuthority","inputs":[{"name":"newAuthority","type":"address","internalType":"address"}],"outputs":[],"stateMutability":"nonpayable"},{"type":"function","name":"setRewardsProxy","inputs":[{"name":"_rewardsProxy","type":"address","internalType":"address"}],"outputs":[],"stateMutability":"nonpayable"},{"type":"function","name":"storeRatesAtExpiry","inputs":[],"outputs":[],"stateMutability":"nonpayable"},{"type":"function","name":"symbol","inputs":[],"outputs":[{"name":"","type":"string","internalType":"string"}],"stateMutability":"view"},{"type":"function","name":"totalAssets","inputs":[],"outputs":[{"name":"","type":"uint256","internalType":"uint256"}],"stateMutability":"view"},{"type":"function","name":"totalSupply","inputs":[],"outputs":[{"name":"","type":"uint256","internalType":"uint256"}],"stateMutability":"view"},{"type":"function","name":"transfer","inputs":[{"name":"to","type":"address","internalType":"address"},{"name":"value","type":"uint256","internalType":"uint256"}],"outputs":[{"name":"","type":"bool","internalType":"bool"}],"stateMutability":"nonpayable"},{"type":"function","name":"transferFrom","inputs":[{"name":"from","type":"address","internalType":"address"},{"name":"to","type":"address","internalType":"address"},{"name":"value","type":"uint256","internalType":"uint256"}],"outputs":[{"name":"","type":"bool","internalType":"bool"}],"stateMutability":"nonpayable"},{"type":"function","name":"unPause","inputs":[],"outputs":[],"stateMutability":"nonpayable"},{"type":"function","name":"underlying","inputs":[],"outputs":[{"name":"","type":"address","internalType":"address"}],"stateMutability":"view"},{"type":"function","name":"updateYield","inputs":[{"name":"_user","type":"address","internalType":"address"}],"outputs":[{"name":"updatedUserYieldInIBT","type":"uint256","internalType":"uint256"}],"stateMutability":"nonpayable"},{"type":"function","name":"withdraw","inputs":[{"name":"assets","type":"uint256","internalType":"uint256"},{"name":"receiver","type":"address","internalType":"address"},{"name":"owner","type":"address","internalType":"address"},{"name":"maxShares","type":"uint256","internalType":"uint256"}],"outputs":[{"name":"shares","type":"uint256","internalType":"uint256"}],"stateMutability":"nonpayable"},{"type":"function","name":"withdraw","inputs":[{"name":"assets","type":"uint256","internalType":"uint256"},{"name":"receiver","type":"address","internalType":"address"},{"name":"owner","type":"address","internalType":"address"}],"outputs":[{"name":"shares","type":"uint256","internalType":"uint256"}],"stateMutability":"nonpayable"},{"type":"function","name":"withdrawIBT","inputs":[{"name":"ibts","type":"uint256","internalType":"uint256"},{"name":"receiver","type":"address","internalType":"address"},{"name":"owner","type":"address","internalType":"address"}],"outputs":[{"name":"shares","type":"uint256","internalType":"uint256"}],"stateMutability":"nonpayable"},{"type":"function","name":"withdrawIBT","inputs":[{"name":"ibts","type":"uint256","internalType":"uint256"},{"name":"receiver","type":"address","internalType":"address"},{"name":"owner","type":"address","internalType":"address"},{"name":"maxShares","type":"uint256","internalType":"uint256"}],"outputs":[{"name":"shares","type":"uint256","internalType":"uint256"}],"stateMutability":"nonpayable"},{"type":"event","name":"Approval","inputs":[{"name":"owner","type":"address","indexed":true,"internalType":"address"},{"name":"spender","type":"address","indexed":true,"internalType":"address"},{"name":"value","type":"uint256","indexed":false,"internalType":"uint256"}],"anonymous":false},{"type":"event","name":"AuthorityUpdated","inputs":[{"name":"authority","type":"address","indexed":false,"internalType":"address"}],"anonymous":false},{"type":"event","name":"EIP712DomainChanged","inputs":[],"anonymous":false},{"type":"event","name":"FeeClaimed","inputs":[{"name":"user","type":"address","indexed":true,"internalType":"address"},{"name":"redeemedIbts","type":"uint256","indexed":true,"internalType":"uint256"},{"name":"receivedAssets","type":"uint256","indexed":true,"internalType":"uint256"}],"anonymous":false},{"type":"event","name":"Initialized","inputs":[{"name":"version","type":"uint64","indexed":false,"internalType":"uint64"}],"anonymous":false},{"type":"event","name":"Mint","inputs":[{"name":"from","type":"address","indexed":true,"internalType":"address"},{"name":"to","type":"address","indexed":true,"internalType":"address"},{"name":"amount","type":"uint256","indexed":false,"internalType":"uint256"}],"anonymous":false},{"type":"event","name":"Paused","inputs":[{"name":"account","type":"address","indexed":false,"internalType":"address"}],"anonymous":false},{"type":"event","name":"RatesStoredAtExpiry","inputs":[{"name":"ibtRate","type":"uint256","indexed":true,"internalType":"uint256"},{"name":"ptRate","type":"uint256","indexed":true,"internalType":"uint256"}],"anonymous":false},{"type":"event","name":"Redeem","inputs":[{"name":"from","type":"address","indexed":true,"internalType":"address"},{"name":"to","type":"address","indexed":true,"internalType":"address"},{"name":"amount","type":"uint256","indexed":false,"internalType":"uint256"}],"anonymous":false},{"type":"event","name":"RewardsProxyChange","inputs":[{"name":"oldRewardsProxy","type":"address","indexed":true,"internalType":"address"},{"name":"newRewardsProxy","type":"address","indexed":true,"internalType":"address"}],"anonymous":false},{"type":"event","name":"Transfer","inputs":[{"name":"from","type":"address","indexed":true,"internalType":"address"},{"name":"to","type":"address","indexed":true,"internalType":"address"},{"name":"value","type":"uint256","indexed":false,"internalType":"uint256"}],"anonymous":false},{"type":"event","name":"Unpaused","inputs":[{"name":"account","type":"address","indexed":false,"internalType":"address"}],"anonymous":false},{"type":"event","name":"YTDeployed","inputs":[{"name":"yt","type":"address","indexed":true,"internalType":"address"}],"anonymous":false},{"type":"event","name":"YieldClaimed","inputs":[{"name":"owner","type":"address","indexed":true,"internalType":"address"},{"name":"receiver","type":"address","indexed":true,"internalType":"address"},{"name":"yieldInIBT","type":"uint256","indexed":true,"internalType":"uint256"}],"anonymous":false},{"type":"event","name":"YieldUpdated","inputs":[{"name":"user","type":"address","indexed":true,"internalType":"address"},{"name":"yieldInIBT","type":"uint256","indexed":true,"internalType":"uint256"}],"anonymous":false},{"type":"error","name":"AccessManagedInvalidAuthority","inputs":[{"name":"authority","type":"address","internalType":"address"}]},{"type":"error","name":"AccessManagedRequiredDelay","inputs":[{"name":"caller","type":"address","internalType":"address"},{"name":"delay","type":"uint32","internalType":"uint32"}]},{"type":"error","name":"AccessManagedUnauthorized","inputs":[{"name":"caller","type":"address","internalType":"address"}]},{"type":"error","name":"AddressEmptyCode","inputs":[{"name":"target","type":"address","internalType":"address"}]},{"type":"error","name":"AddressError","inputs":[]},{"type":"error","name":"AddressInsufficientBalance","inputs":[{"name":"account","type":"address","internalType":"address"}]},{"type":"error","name":"BeaconNotSet","inputs":[]},{"type":"error","name":"ClaimRewardsFailed","inputs":[]},{"type":"error","name":"ECDSAInvalidSignature","inputs":[]},{"type":"error","name":"ECDSAInvalidSignatureLength","inputs":[{"name":"length","type":"uint256","internalType":"uint256"}]},{"type":"error","name":"ECDSAInvalidSignatureS","inputs":[{"name":"s","type":"bytes32","internalType":"bytes32"}]},{"type":"error","name":"ERC20InsufficientAllowance","inputs":[{"name":"spender","type":"address","internalType":"address"},{"name":"allowance","type":"uint256","internalType":"uint256"},{"name":"needed","type":"uint256","internalType":"uint256"}]},{"type":"error","name":"ERC20InsufficientBalance","inputs":[{"name":"sender","type":"address","internalType":"address"},{"name":"balance","type":"uint256","internalType":"uint256"},{"name":"needed","type":"uint256","internalType":"uint256"}]},{"type":"error","name":"ERC20InvalidApprover","inputs":[{"name":"approver","type":"address","internalType":"address"}]},{"type":"error","name":"ERC20InvalidReceiver","inputs":[{"name":"receiver","type":"address","internalType":"address"}]},{"type":"error","name":"ERC20InvalidSender","inputs":[{"name":"sender","type":"address","internalType":"address"}]},{"type":"error","name":"ERC20InvalidSpender","inputs":[{"name":"spender","type":"address","internalType":"address"}]},{"type":"error","name":"ERC2612ExpiredSignature","inputs":[{"name":"deadline","type":"uint256","internalType":"uint256"}]},{"type":"error","name":"ERC2612InvalidSigner","inputs":[{"name":"signer","type":"address","internalType":"address"},{"name":"owner","type":"address","internalType":"address"}]},{"type":"error","name":"ERC5143SlippageProtectionFailed","inputs":[]},{"type":"error","name":"EnforcedPause","inputs":[]},{"type":"error","name":"ExpectedPause","inputs":[]},{"type":"error","name":"FailedInnerCall","inputs":[]},{"type":"error","name":"FlashLoanCallbackFailed","inputs":[]},{"type":"error","name":"FlashLoanExceedsMaxAmount","inputs":[]},{"type":"error","name":"InsufficientBalance","inputs":[]},{"type":"error","name":"InvalidAccountNonce","inputs":[{"name":"account","type":"address","internalType":"address"},{"name":"currentNonce","type":"uint256","internalType":"uint256"}]},{"type":"error","name":"InvalidDecimals","inputs":[]},{"type":"error","name":"InvalidInitialization","inputs":[]},{"type":"error","name":"MathOverflowedMulDiv","inputs":[]},{"type":"error","name":"NoRewardsProxy","inputs":[]},{"type":"error","name":"NotInitializing","inputs":[]},{"type":"error","name":"PTExpired","inputs":[]},{"type":"error","name":"PTNotExpired","inputs":[]},{"type":"error","name":"RateError","inputs":[]},{"type":"error","name":"RatesAtExpiryAlreadyStored","inputs":[]},{"type":"error","name":"ReentrancyGuardReentrantCall","inputs":[]},{"type":"error","name":"SafeERC20FailedOperation","inputs":[{"name":"token","type":"address","internalType":"address"}]},{"type":"error","name":"UnauthorizedCaller","inputs":[]}],"bytecode":{"object":"0x60a060405234801562000010575f80fd5b5060405162009bb338038062009bb3833981810160405281019062000036919062000277565b5f73ffffffffffffffffffffffffffffffffffffffff168173ffffffffffffffffffffffffffffffffffffffff16036200009c576040517f62cb2cb800000000000000000000000000000000000000000000000000000000815260040160405180910390fd5b8073ffffffffffffffffffffffffffffffffffffffff1660808173ffffffffffffffffffffffffffffffffffffffff1681525050620000e0620000e760201b60201c565b50620002e6565b5f620000f8620001eb60201b60201c565b9050805f0160089054906101000a900460ff161562000143576040517ff92ee8a900000000000000000000000000000000000000000000000000000000815260040160405180910390fd5b67ffffffffffffffff8016815f015f9054906101000a900467ffffffffffffffff1667ffffffffffffffff1614620001e85767ffffffffffffffff815f015f6101000a81548167ffffffffffffffff021916908367ffffffffffffffff1602179055507fc7f505b2f371ae2175ee4913f4499e1f2633a7b5936321eed1cdaeb6115181d267ffffffffffffffff604051620001df9190620002cb565b60405180910390a15b50565b5f7ff0c57e16840df040f15088dc2f81fe391c3923bec73e23a9662efc9c229c6a00905090565b5f80fd5b5f73ffffffffffffffffffffffffffffffffffffffff82169050919050565b5f620002418262000216565b9050919050565b620002538162000235565b81146200025e575f80fd5b50565b5f81519050620002718162000248565b92915050565b5f602082840312156200028f576200028e62000212565b5b5f6200029e8482850162000261565b91505092915050565b5f67ffffffffffffffff82169050919050565b620002c581620002a7565b82525050565b5f602082019050620002e05f830184620002ba565b92915050565b608051619883620003305f395f8181611354015281816116ca015281816128e701528181612987015281816139820152818161472001528181614ce001526158f101526198835ff3fe608060405234801562000010575f80fd5b506004361062000475575f3560e01c80637a9e5e4b1162000253578063b460af94116200014b578063d9d98ce411620000c7578063ef8b30f71162000091578063ef8b30f71462000fcd578063efd98dc21462001003578063f7b188a51462001025578063f90d63db1462001031578063fb9b95dd14620010675762000475565b8063d9d98ce41462000f0b578063dd62ed3e1462000f41578063e190febc1462000f77578063e4cca4b01462000f975762000475565b8063c350a1b51162000115578063c350a1b51462000e3d578063c644fe941462000e5d578063ce96cb771462000e7f578063d505accf1462000eb5578063d905777e1462000ed55762000475565b8063b460af941462000d79578063ba0876521462000daf578063badfc0741462000de5578063bf7e214f1462000e1b5762000475565b80639f40a7b311620001db578063a9059cbb11620001a5578063a9059cbb1462000c93578063abfa94461462000cc9578063ac68a7481462000ceb578063ad2e8c9b1462000d21578063b2afd5a31462000d435762000475565b80639f40a7b31462000bf9578063a13c91a31462000c2f578063a1c5b3e11462000c3b578063a318c1a41462000c5d5762000475565b806385326f45116200021d57806385326f451462000b495780638a7c31fa1462000b7f5780638fb360371462000bb557806395d89b411462000bd75762000475565b80637a9e5e4b1462000abf5780637ecebe001462000adf5780638456cb591462000b1557806384b0196e1462000b215762000475565b80632e2d298411620003735780635c975abb11620002ef57806368c1f7f611620002b957806368c1f7f614620009d95780636e553f651462000a0f5780636f307dc31462000a4557806370a082311462000a67578063714d422b1462000a9d5762000475565b80635c975abb14620009155780635cffe9de1462000937578063613255ab146200096d57806365edd06414620009a35762000475565b8063402d267d116200033d578063402d267d1462000831578063443b6aed14620008675780634cdad506146200089d5780634f5867a414620008d35780634f72ec2f14620008f55762000475565b80632e2d29841462000781578063313ce56714620007b757806334b4ddc714620007d95780633644e515146200080f5762000475565b806318160ddd1162000403578063204f83f911620003cd578063204f83f9146200069d57806320b9353b14620006bf57806323b872dd14620006df57806325a8d87d14620007155780632a412806146200074b5762000475565b806318160ddd14620005ed5780631869ebda146200060f5780631dc7f52114620006455780631f2b4f24146200067b5762000475565b806306fdde03116200044557806306fdde031462000529578063095ea7b3146200054b5780630a28a47714620005815780630e1b6d8914620005b75762000475565b806277e146146200047957806301e1d11414620004af57806304aa50ad14620004d157806305edf52a14620004f3575b5f80fd5b62000497600480360381019062000491919062007301565b6200109d565b604051620004a691906200736b565b60405180910390f35b620004b9620011b8565b604051620004c891906200736b565b60405180910390f35b620004db620012dd565b604051620004ea919062007397565b60405180910390f35b6200051160048036038101906200050b9190620073b2565b62001305565b6040516200052091906200736b565b60405180910390f35b62000533620013a6565b60405162000542919062007476565b60405180910390f35b62000569600480360381019062000563919062007498565b6200144e565b604051620005789190620074f9565b60405180910390f35b6200059f6004803603810190620005999190620073b2565b62001474565b604051620005ae91906200736b565b60405180910390f35b620005d56004803603810190620005cf919062007514565b62001529565b604051620005e491906200736b565b60405180910390f35b620005f762001712565b6040516200060691906200736b565b60405180910390f35b6200062d600480360381019062000627919062007498565b6200172b565b6040516200063c91906200736b565b60405180910390f35b6200066360048036038101906200065d9190620073b2565b62001884565b6040516200067291906200736b565b60405180910390f35b6200068562001935565b6040516200069491906200736b565b60405180910390f35b620006a76200193e565b604051620006b691906200736b565b60405180910390f35b620006dd6004803603810190620006d7919062007514565b62001947565b005b620006fd6004803603810190620006f7919062007544565b62001a20565b6040516200070c9190620074f9565b60405180910390f35b6200073360048036038101906200072d9190620073b2565b62001a54565b6040516200074291906200736b565b60405180910390f35b6200076960048036038101906200076391906200759d565b62001b05565b6040516200077891906200736b565b60405180910390f35b6200079f600480360381019062000799919062007301565b62001b58565b604051620007ae91906200736b565b60405180910390f35b620007c162001caf565b604051620007d0919062007629565b60405180910390f35b620007f76004803603810190620007f1919062007498565b62001cc4565b6040516200080691906200736b565b60405180910390f35b6200081962001dc4565b6040516200082891906200765e565b60405180910390f35b6200084f600480360381019062000849919062007514565b62001dd4565b6040516200085e91906200736b565b60405180910390f35b6200088560048036038101906200087f919062007679565b62001e22565b6040516200089491906200736b565b60405180910390f35b620008bb6004803603810190620008b59190620073b2565b62001e38565b604051620008ca91906200736b565b60405180910390f35b620008dd62001ee8565b604051620008ec91906200736b565b60405180910390f35b6200091360048036038101906200090d9190620076be565b62001ef1565b005b6200091f62001f94565b6040516200092e9190620074f9565b60405180910390f35b6200095560048036038101906200094f9190620077af565b62001fa4565b604051620009649190620074f9565b60405180910390f35b6200098b600480360381019062000985919062007514565b6200218c565b6040516200099a91906200736b565b60405180910390f35b620009c16004803603810190620009bb91906200759d565b62002276565b604051620009d091906200736b565b60405180910390f35b620009f76004803603810190620009f19190620073b2565b620022c9565b60405162000a0691906200736b565b60405180910390f35b62000a2d600480360381019062000a27919062007679565b620022e7565b60405162000a3c91906200736b565b60405180910390f35b62000a4f620022fd565b60405162000a5e919062007397565b60405180910390f35b62000a85600480360381019062000a7f919062007514565b62002325565b60405162000a9491906200736b565b60405180910390f35b62000aa76200237a565b60405162000ab691906200736b565b60405180910390f35b62000add600480360381019062000ad7919062007514565b62002383565b005b62000afd600480360381019062000af7919062007514565b62002479565b60405162000b0c91906200736b565b60405180910390f35b62000b1f6200248c565b005b62000b2b620024b6565b60405162000b40979695949392919062007944565b60405180910390f35b62000b67600480360381019062000b6191906200759d565b620025cd565b60405162000b7691906200736b565b60405180910390f35b62000b9d600480360381019062000b979190620073b2565b62002620565b60405162000bac91906200736b565b60405180910390f35b62000bbf6200263f565b60405162000bce919062007a10565b60405180910390f35b62000be16200267c565b60405162000bf0919062007476565b60405180910390f35b62000c17600480360381019062000c1191906200759d565b62002724565b60405162000c2691906200736b565b60405180910390f35b62000c3962002777565b005b62000c4562002854565b60405162000c5491906200736b565b60405180910390f35b62000c7b600480360381019062000c7591906200759d565b6200286b565b60405162000c8a91906200736b565b60405180910390f35b62000cb1600480360381019062000cab919062007498565b620028be565b60405162000cc09190620074f9565b60405180910390f35b62000cd3620028e4565b60405162000ce291906200736b565b60405180910390f35b62000d09600480360381019062000d039190620073b2565b6200297a565b60405162000d1891906200736b565b60405180910390f35b62000d2b62002bb2565b60405162000d3a91906200736b565b60405180910390f35b62000d61600480360381019062000d5b919062007301565b62002bbb565b60405162000d7091906200736b565b60405180910390f35b62000d97600480360381019062000d91919062007301565b62002caf565b60405162000da691906200736b565b60405180910390f35b62000dcd600480360381019062000dc7919062007301565b62002da2565b60405162000ddc91906200736b565b60405180910390f35b62000e03600480360381019062000dfd919062007301565b62002ee1565b60405162000e1291906200736b565b60405180910390f35b62000e2562002f5c565b60405162000e34919062007397565b60405180910390f35b62000e5b600480360381019062000e55919062007a2b565b62002f93565b005b62000e6762003719565b60405162000e76919062007397565b60405180910390f35b62000e9d600480360381019062000e97919062007514565b62003741565b60405162000eac91906200736b565b60405180910390f35b62000ed3600480360381019062000ecd919062007ae2565b62003775565b005b62000ef3600480360381019062000eed919062007514565b620038ca565b60405162000f0291906200736b565b60405180910390f35b62000f29600480360381019062000f23919062007498565b620038f4565b60405162000f3891906200736b565b60405180910390f35b62000f5f600480360381019062000f599190620076be565b620039b9565b60405162000f6e91906200736b565b60405180910390f35b62000f95600480360381019062000f8f919062007cd4565b62003a4b565b005b62000fb5600480360381019062000faf91906200759d565b62003c3d565b60405162000fc491906200736b565b60405180910390f35b62000feb600480360381019062000fe59190620073b2565b62003c90565b60405162000ffa91906200736b565b60405180910390f35b6200100d62003d45565b6040516200101c91906200736b565b60405180910390f35b6200102f62003d5c565b005b6200104f600480360381019062001049919062007514565b62003d86565b6040516200105e91906200736b565b60405180910390f35b6200108560048036038101906200107f919062007514565b62004050565b6040516200109491906200736b565b60405180910390f35b5f620010a862004085565b5f60015f9054906101000a900473ffffffffffffffffffffffffffffffffffffffff169050620011558173ffffffffffffffffffffffffffffffffffffffff16634cdad506876040518263ffffffff1660e01b81526004016200110c91906200736b565b602060405180830381865afa15801562001128573d5f803e3d5ffd5b505050506040513d601f19601f820116820180604052508101906200114e919062007d39565b84620040dc565b5f80620011625f62004157565b9150915062001175878787858562004190565b9350620011a486888573ffffffffffffffffffffffffffffffffffffffff16620043409092919063ffffffff16565b505050620011b1620043c3565b9392505050565b5f8060015f9054906101000a900473ffffffffffffffffffffffffffffffffffffffff1690508073ffffffffffffffffffffffffffffffffffffffff16634cdad5068273ffffffffffffffffffffffffffffffffffffffff166370a08231306040518263ffffffff1660e01b815260040162001235919062007397565b602060405180830381865afa15801562001251573d5f803e3d5ffd5b505050506040513d601f19601f8201168201806040525081019062001277919062007d39565b6040518263ffffffff1660e01b81526004016200129591906200736b565b602060405180830381865afa158015620012b1573d5f803e3d5ffd5b505050506040513d601f19601f82011682018060405250810190620012d7919062007d39565b91505090565b5f60035f9054906101000a900473ffffffffffffffffffffffffffffffffffffffff16905090565b5f600954421062001342576040517f5bc2b95a00000000000000000000000000000000000000000000000000000000815260040160405180910390fd5b6200134c620043dc565b5f62001384307f000000000000000000000000000000000000000000000000000000000000000085620044209092919063ffffffff16565b90506200139e818462001398919062007d96565b6200456f565b915050919050565b60605f620013b3620045dc565b9050806003018054620013c69062007dfd565b80601f0160208091040260200160405190810160405280929190818152602001828054620013f49062007dfd565b8015620014435780601f10620014195761010080835404028352916020019162001443565b820191905f5260205f20905b8154815290600101906020018083116200142557829003601f168201915b505050505091505090565b5f806200145a62004603565b9050620014698185856200460a565b600191505092915050565b5f8060015f9054906101000a900473ffffffffffffffffffffffffffffffffffffffff1673ffffffffffffffffffffffffffffffffffffffff16630a28a477846040518263ffffffff1660e01b8152600401620014d291906200736b565b602060405180830381865afa158015620014ee573d5f803e3d5ffd5b505050506040513d601f19601f8201168201806040525081019062001514919062007d39565b9050620015218162002620565b915050919050565b5f80600c5f8473ffffffffffffffffffffffffffffffffffffffff1673ffffffffffffffffffffffffffffffffffffffff1681526020019081526020015f205490505f81146200170c575f80620015805f62004157565b915091505f600d5f8773ffffffffffffffffffffffffffffffffffffffff1673ffffffffffffffffffffffffffffffffffffffff1681526020019081526020015f205490508573ffffffffffffffffffffffffffffffffffffffff1673__$dbb3817a7cc7bc396930b3b6b8b46fd35d$__6314d9ebd89091600e5f8a73ffffffffffffffffffffffffffffffffffffffff1673ffffffffffffffffffffffffffffffffffffffff1681526020019081526020015f20548786868960035f9054906101000a900473ffffffffffffffffffffffffffffffffffffffff166040518863ffffffff1660e01b815260040162001680979695949392919062007e53565b602060405180830381865af41580156200169c573d5f803e3d5ffd5b505050506040513d601f19601f82011682018060405250810190620016c2919062007d39565b9450620016f97f0000000000000000000000000000000000000000000000000000000000000000866200461e90919063ffffffff16565b8562001706919062007d96565b94505050505b50919050565b5f806200171e620045dc565b9050806002015491505090565b5f8062001737620046b8565b9050808473ffffffffffffffffffffffffffffffffffffffff163373ffffffffffffffffffffffffffffffffffffffff167ff3055bc8d92d9c8d2f12b45d112dd345cd2cfd17292b8d65c5642ac6f912dfd760405160405180910390a45f8114620018425760015f9054906101000a900473ffffffffffffffffffffffffffffffffffffffff1673ffffffffffffffffffffffffffffffffffffffff1663ba0876528286306040518463ffffffff1660e01b8152600401620017fc9392919062007ece565b6020604051808303815f875af115801562001819573d5f803e3d5ffd5b505050506040513d601f19601f820116820180604052508101906200183f919062007d39565b91505b818311156200187d576040517ff033da7000000000000000000000000000000000000000000000000000000000815260040160405180910390fd5b5092915050565b5f60015f9054906101000a900473ffffffffffffffffffffffffffffffffffffffff1673ffffffffffffffffffffffffffffffffffffffff16634cdad506620018ce845f62004771565b6040518263ffffffff1660e01b8152600401620018ec91906200736b565b602060405180830381865afa15801562001908573d5f803e3d5ffd5b505050506040513d601f19601f820116820180604052508101906200192e919062007d39565b9050919050565b5f600454905090565b5f600954905090565b620019656200195562004603565b6200195f620047ef565b620047fb565b8073ffffffffffffffffffffffffffffffffffffffff165f8054906101000a900473ffffffffffffffffffffffffffffffffffffffff1673ffffffffffffffffffffffffffffffffffffffff167ffa75d5930102c099ee40e7b722369d2c0176a687d495036838777f8130a35e5f60405160405180910390a3805f806101000a81548173ffffffffffffffffffffffffffffffffffffffff021916908373ffffffffffffffffffffffffffffffffffffffff16021790555050565b5f8062001a2c62004603565b905062001a3b85828562004957565b62001a48858585620049f1565b60019150509392505050565b5f62001afe60015f9054906101000a900473ffffffffffffffffffffffffffffffffffffffff1673ffffffffffffffffffffffffffffffffffffffff1663ef8b30f7846040518263ffffffff1660e01b815260040162001ab591906200736b565b602060405180830381865afa15801562001ad1573d5f803e3d5ffd5b505050506040513d601f19601f8201168201806040525081019062001af7919062007d39565b5f62004ae9565b9050919050565b5f62001b1385858562002ee1565b90508181101562001b50576040517ff033da7000000000000000000000000000000000000000000000000000000000815260040160405180910390fd5b949350505050565b5f62001b6362004085565b5f60015f9054906101000a900473ffffffffffffffffffffffffffffffffffffffff1690505f60025f9054906101000a900473ffffffffffffffffffffffffffffffffffffffff16905062001bdc3330888473ffffffffffffffffffffffffffffffffffffffff1662004b67909392919063ffffffff16565b62001c0982878373ffffffffffffffffffffffffffffffffffffffff1662004bed9092919063ffffffff16565b5f8273ffffffffffffffffffffffffffffffffffffffff16636e553f6588306040518363ffffffff1660e01b815260040162001c4792919062007f09565b6020604051808303815f875af115801562001c64573d5f803e3d5ffd5b505050506040513d601f19601f8201168201806040525081019062001c8a919062007d39565b905062001c9981878762004c8f565b935050505062001ca8620043c3565b9392505050565b5f8060149054906101000a900460ff16905090565b5f62001ccf620046b8565b90508082111562001d0c576040517ff033da7000000000000000000000000000000000000000000000000000000000815260040160405180910390fd5b808373ffffffffffffffffffffffffffffffffffffffff163373ffffffffffffffffffffffffffffffffffffffff167ff3055bc8d92d9c8d2f12b45d112dd345cd2cfd17292b8d65c5642ac6f912dfd760405160405180910390a45f811462001dbe5762001dbd838260015f9054906101000a900473ffffffffffffffffffffffffffffffffffffffff1673ffffffffffffffffffffffffffffffffffffffff16620043409092919063ffffffff16565b5b92915050565b5f62001dcf62004e7a565b905090565b5f62001ddf62001f94565b8062001ded57506009544210155b62001e19577fffffffffffffffffffffffffffffffffffffffffffffffffffffffffffffffff62001e1b565b5f5b9050919050565b5f62001e3083838462002ee1565b905092915050565b5f60015f9054906101000a900473ffffffffffffffffffffffffffffffffffffffff1673ffffffffffffffffffffffffffffffffffffffff16634cdad50662001e8184620022c9565b6040518263ffffffff1660e01b815260040162001e9f91906200736b565b602060405180830381865afa15801562001ebb573d5f803e3d5ffd5b505050506040513d601f19601f8201168201806040525081019062001ee1919062007d39565b9050919050565b5f600854905090565b60035f9054906101000a900473ffffffffffffffffffffffffffffffffffffffff1673ffffffffffffffffffffffffffffffffffffffff163373ffffffffffffffffffffffffffffffffffffffff161462001f78576040517f5c427cd900000000000000000000000000000000000000000000000000000000815260040160405180910390fd5b62001f838262003d86565b5062001f8f8162003d86565b505050565b5f62001f9f62004e8a565b905090565b5f62001faf620043dc565b62001fba856200218c565b84111562001ff4576040517f214b306a00000000000000000000000000000000000000000000000000000000815260040160405180910390fd5b5f620020018686620038f4565b90506200200e8162004eae565b5f60015f9054906101000a900473ffffffffffffffffffffffffffffffffffffffff1690506200206088878373ffffffffffffffffffffffffffffffffffffffff16620043409092919063ffffffff16565b7f439148f0bbc682ca079e46d6e2c2f0c1e3b820f1a291b069d8882abf8cf18dd98873ffffffffffffffffffffffffffffffffffffffff166323e30c8b338a8a878b8b6040518763ffffffff1660e01b8152600401620020c69695949392919062007f76565b6020604051808303815f875af1158015620020e3573d5f803e3d5ffd5b505050506040513d601f19601f8201168201806040525081019062002109919062007ff0565b1462002141576040517f7d65916100000000000000000000000000000000000000000000000000000000815260040160405180910390fd5b6200217d8830848962002155919062008020565b8473ffffffffffffffffffffffffffffffffffffffff1662004b67909392919063ffffffff16565b60019250505095945050505050565b5f8060015f9054906101000a900473ffffffffffffffffffffffffffffffffffffffff1690508073ffffffffffffffffffffffffffffffffffffffff168373ffffffffffffffffffffffffffffffffffffffff1614620021f0575f91505062002271565b8073ffffffffffffffffffffffffffffffffffffffff166370a08231306040518263ffffffff1660e01b81526004016200222b919062007397565b602060405180830381865afa15801562002247573d5f803e3d5ffd5b505050506040513d601f19601f820116820180604052508101906200226d919062007d39565b9150505b919050565b5f620022848585856200109d565b905081811115620022c1576040517ff033da7000000000000000000000000000000000000000000000000000000000815260040160405180910390fd5b949350505050565b5f620022d4620043dc565b620022e0825f62004771565b9050919050565b5f620022f583838462001b58565b905092915050565b5f60025f9054906101000a900473ffffffffffffffffffffffffffffffffffffffff16905090565b5f8062002331620045dc565b9050805f015f8473ffffffffffffffffffffffffffffffffffffffff1673ffffffffffffffffffffffffffffffffffffffff1681526020019081526020015f2054915050919050565b5f600754905090565b5f6200238e62004603565b90506200239a62002f5c565b73ffffffffffffffffffffffffffffffffffffffff168173ffffffffffffffffffffffffffffffffffffffff16146200240c57806040517f068ca9d800000000000000000000000000000000000000000000000000000000815260040162002403919062007397565b60405180910390fd5b5f8273ffffffffffffffffffffffffffffffffffffffff163b036200246a57816040517fc2f31e5e00000000000000000000000000000000000000000000000000000000815260040162002461919062007397565b60405180910390fd5b620024758262004edd565b5050565b5f620024858262004f68565b9050919050565b620024aa6200249a62004603565b620024a4620047ef565b620047fb565b620024b462004fbd565b565b5f6060805f805f60605f620024ca62005034565b90505f801b815f0154148015620024e657505f801b8160010154145b62002528576040517f08c379a00000000000000000000000000000000000000000000000000000000081526004016200251f90620080a8565b60405180910390fd5b620025326200505b565b6200253c62005103565b46305f801b5f67ffffffffffffffff8111156200255e576200255d62007b94565b5b6040519080825280602002602001820160405280156200258d5781602001602082028036833780820191505090505b507f0f0000000000000000000000000000000000000000000000000000000000000095949392919097509750975097509750975097505090919293949596565b5f620025db85858562002bbb565b90508181101562002618576040517ff033da7000000000000000000000000000000000000000000000000000000000815260040160405180910390fd5b949350505050565b5f6200262b620043dc565b6200263882600162004ae9565b9050919050565b5f806200264b620051ab565b9050805f0160149054906101000a900460ff166200266d575f60e01b62002676565b638fb3603760e01b5b91505090565b60605f62002689620045dc565b90508060040180546200269c9062007dfd565b80601f0160208091040260200160405190810160405280929190818152602001828054620026ca9062007dfd565b8015620027195780601f10620026ef5761010080835404028352916020019162002719565b820191905f5260205f20905b815481529060010190602001808311620026fb57829003601f168201915b505050505091505090565b5f6200273285858562002da2565b9050818110156200276f576040517ff033da7000000000000000000000000000000000000000000000000000000000815260040160405180910390fd5b949350505050565b600954421015620027b4576040517ff215723200000000000000000000000000000000000000000000000000000000815260040160405180910390fd5b620027be620043dc565b6001600b5403620027fb576040517f660e5d3a00000000000000000000000000000000000000000000000000000000815260040160405180910390fd5b6001600b819055505f80620028105f620051d2565b91509150816005819055508060068190555081817f86f6956dfa46dcc6315cbb9f8917848f94efdedd075e2500cb1edfcf9102917260405160405180910390a35050565b5f80620028615f62004157565b5090508091505090565b5f6200287985858562002caf565b905081811115620028b6576040517ff033da7000000000000000000000000000000000000000000000000000000000815260040160405180910390fd5b949350505050565b5f80620028ca62004603565b9050620028d9818585620049f1565b600191505092915050565b5f7f000000000000000000000000000000000000000000000000000000000000000073ffffffffffffffffffffffffffffffffffffffff1663abfa94466040518163ffffffff1660e01b8152600401602060405180830381865afa1580156200294f573d5f803e3d5ffd5b505050506040513d601f19601f8201168201806040525081019062002975919062007d39565b905090565b5f62002985620043dc565b7f000000000000000000000000000000000000000000000000000000000000000073ffffffffffffffffffffffffffffffffffffffff166312fde4b76040518163ffffffff1660e01b8152600401602060405180830381865afa158015620029ef573d5f803e3d5ffd5b505050506040513d601f19601f8201168201806040525081019062002a159190620080de565b73ffffffffffffffffffffffffffffffffffffffff163373ffffffffffffffffffffffffffffffffffffffff161462002a7a576040517f5c427cd900000000000000000000000000000000000000000000000000000000815260040160405180910390fd5b5f60075490505f60078190555081813373ffffffffffffffffffffffffffffffffffffffff167f534114bde8a4f5487c6eb9d267c214944566cf13de30333c7a2abed6857634cf60405160405180910390a460015f9054906101000a900473ffffffffffffffffffffffffffffffffffffffff1673ffffffffffffffffffffffffffffffffffffffff1663ba0876528233306040518463ffffffff1660e01b815260040162002b2c9392919062007ece565b6020604051808303815f875af115801562002b49573d5f803e3d5ffd5b505050506040513d601f19601f8201168201806040525081019062002b6f919062007d39565b91508183111562002bac576040517ff033da7000000000000000000000000000000000000000000000000000000000815260040160405180910390fd5b50919050565b5f600a54905090565b5f62002bc662004085565b62002bd28483620053df565b62002bde845f62004771565b90508273ffffffffffffffffffffffffffffffffffffffff168273ffffffffffffffffffffffffffffffffffffffff167fd12200efa34901b99367694174c3b0d32c99585fdf37c7c26892136ddd0836d98660405162002c3f91906200736b565b60405180910390a35f811462002c9e5762002c9d838260015f9054906101000a900473ffffffffffffffffffffffffffffffffffffffff1673ffffffffffffffffffffffffffffffffffffffff16620043409092919063ffffffff16565b5b62002ca8620043c3565b9392505050565b5f62002cba62004085565b62002cc68483620040dc565b5f8062002cd35f62004157565b915091505f60015f9054906101000a900473ffffffffffffffffffffffffffffffffffffffff1673ffffffffffffffffffffffffffffffffffffffff1663b460af948888306040518463ffffffff1660e01b815260040162002d389392919062007ece565b6020604051808303815f875af115801562002d55573d5f803e3d5ffd5b505050506040513d601f19601f8201168201806040525081019062002d7b919062007d39565b905062002d8c818787868662004190565b935050505062002d9b620043c3565b9392505050565b5f62002dad62004085565b62002db98483620053df565b8273ffffffffffffffffffffffffffffffffffffffff168273ffffffffffffffffffffffffffffffffffffffff167fd12200efa34901b99367694174c3b0d32c99585fdf37c7c26892136ddd0836d98660405162002e1891906200736b565b60405180910390a360015f9054906101000a900473ffffffffffffffffffffffffffffffffffffffff1673ffffffffffffffffffffffffffffffffffffffff1663ba08765262002e69865f62004771565b85306040518463ffffffff1660e01b815260040162002e8b9392919062007ece565b6020604051808303815f875af115801562002ea8573d5f803e3d5ffd5b505050506040513d601f19601f8201168201806040525081019062002ece919062007d39565b905062002eda620043c3565b9392505050565b5f62002eec62004085565b62002f3c33308660015f9054906101000a900473ffffffffffffffffffffffffffffffffffffffff1673ffffffffffffffffffffffffffffffffffffffff1662004b67909392919063ffffffff16565b62002f4984848462004c8f565b905062002f55620043c3565b9392505050565b5f8062002f68620051ab565b9050805f015f9054906101000a900473ffffffffffffffffffffffffffffffffffffffff1691505090565b5f62002f9e62005537565b90505f815f0160089054906101000a900460ff161590505f825f015f9054906101000a900467ffffffffffffffff1690505f808267ffffffffffffffff1614801562002fe75750825b90505f60018367ffffffffffffffff161480156200301b57505f3073ffffffffffffffffffffffffffffffffffffffff163b145b9050811580156200302a575080155b1562003062576040517ff92ee8a900000000000000000000000000000000000000000000000000000000815260040160405180910390fd5b6001855f015f6101000a81548167ffffffffffffffff021916908367ffffffffffffffff1602179055508315620030b0576001855f0160086101000a81548160ff0219169083151502179055505b5f73ffffffffffffffffffffffffffffffffffffffff168873ffffffffffffffffffffffffffffffffffffffff1614806200311657505f73ffffffffffffffffffffffffffffffffffffffff168673ffffffffffffffffffffffffffffffffffffffff16145b156200314e576040517f62cb2cb800000000000000000000000000000000000000000000000000000000815260040160405180910390fd5b5f8873ffffffffffffffffffffffffffffffffffffffff166301e1d1146040518163ffffffff1660e01b8152600401602060405180830381865afa15801562003199573d5f803e3d5ffd5b505050506040513d601f19601f82011682018060405250810190620031bf919062007d39565b03620031f7576040517fa2541d4200000000000000000000000000000000000000000000000000000000815260040160405180910390fd5b86600a819055505f42886200320d919062008020565b9050806009819055505f8973ffffffffffffffffffffffffffffffffffffffff166395d89b416040518163ffffffff1660e01b81526004015f60405180830381865afa15801562003260573d5f803e3d5ffd5b505050506040513d5f823e3d601f19601f820116820180604052508101906200328a9190620081bf565b90505f6200329982846200555e565b9050620032b281620032ac848662005608565b620056b2565b620032bd81620056cc565b620032c76200571a565b620032d162005730565b620032dc8962005746565b8a73ffffffffffffffffffffffffffffffffffffffff166338d52e0f6040518163ffffffff1660e01b8152600401602060405180830381865afa15801562003326573d5f803e3d5ffd5b505050506040513d601f19601f820116820180604052508101906200334c9190620080de565b60025f6101000a81548173ffffffffffffffffffffffffffffffffffffffff021916908373ffffffffffffffffffffffffffffffffffffffff1602179055505f60025f9054906101000a900473ffffffffffffffffffffffffffffffffffffffff1673ffffffffffffffffffffffffffffffffffffffff1673__$dbb3817a7cc7bc396930b3b6b8b46fd35d$__63e6dac70f90916040518263ffffffff1660e01b8152600401620033fe91906200820e565b602060405180830381865af41580156200341a573d5f803e3d5ffd5b505050506040513d601f19601f820116820180604052508101906200344091906200823f565b90505f8c73ffffffffffffffffffffffffffffffffffffffff1663313ce5676040518163ffffffff1660e01b8152600401602060405180830381865afa1580156200348d573d5f803e3d5ffd5b505050506040513d601f19601f82011682018060405250810190620034b391906200823f565b905060068260ff161080620034cd57508060ff168260ff16115b80620034dc575060128160ff16115b1562003514576040517fd25598a000000000000000000000000000000000000000000000000000000000815260040160405180910390fd5b815f60156101000a81548160ff021916908360ff160217905550805f60146101000a81548160ff021916908360ff1602179055508c60015f6101000a81548173ffffffffffffffffffffffffffffffffffffffff021916908373ffffffffffffffffffffffffffffffffffffffff16021790555080600a620035979190620083bf565b600481905550620036338260ff168e73ffffffffffffffffffffffffffffffffffffffff16634cdad5066004546040518263ffffffff1660e01b8152600401620035e291906200736b565b602060405180830381865afa158015620035fe573d5f803e3d5ffd5b505050506040513d601f19601f8201168201806040525081019062003624919062007d39565b6200575e90919063ffffffff16565b6006819055506b033b2e3c9fd0803ce80000006005819055506200366e6200365c858762005799565b62003668868862005843565b620058ed565b60035f6101000a81548173ffffffffffffffffffffffffffffffffffffffff021916908373ffffffffffffffffffffffffffffffffffffffff160217905550505050505083156200370f575f855f0160086101000a81548160ff0219169083151502179055507fc7f505b2f371ae2175ee4913f4499e1f2633a7b5936321eed1cdaeb6115181d260016040516200370691906200846c565b60405180910390a15b5050505050505050565b5f60015f9054906101000a900473ffffffffffffffffffffffffffffffffffffffff16905090565b5f6200374c62001f94565b6200376c5762003766620037608362005adf565b62001884565b6200376e565b5f5b9050919050565b83421115620037bd57836040517f62791302000000000000000000000000000000000000000000000000000000008152600401620037b491906200736b565b60405180910390fd5b5f7f6e71edae12b1b97f4d1f60370fef10105fa2faae0126114a169c64845d6126c9888888620037ed8c62005bc7565b89604051602001620038059695949392919062008487565b6040516020818303038152906040528051906020012090505f620038298262005c29565b90505f6200383a8287878762005c46565b90508973ffffffffffffffffffffffffffffffffffffffff168173ffffffffffffffffffffffffffffffffffffffff1614620038b157808a6040517f4b800e46000000000000000000000000000000000000000000000000000000008152600401620038a8929190620084f2565b60405180910390fd5b620038be8a8a8a6200460a565b50505050505050505050565b5f620038d562001f94565b620038eb57620038e58262005adf565b620038ed565b5f5b9050919050565b5f60015f9054906101000a900473ffffffffffffffffffffffffffffffffffffffff1673ffffffffffffffffffffffffffffffffffffffff168373ffffffffffffffffffffffffffffffffffffffff16146200397c576040517f62cb2cb800000000000000000000000000000000000000000000000000000000815260040160405180910390fd5b620039b17f00000000000000000000000000000000000000000000000000000000000000008362005c7890919063ffffffff16565b905092915050565b5f80620039c5620045dc565b9050806001015f8573ffffffffffffffffffffffffffffffffffffffff1673ffffffffffffffffffffffffffffffffffffffff1681526020019081526020015f205f8473ffffffffffffffffffffffffffffffffffffffff1673ffffffffffffffffffffffffffffffffffffffff1681526020019081526020015f205491505092915050565b62003a6962003a5962004603565b62003a63620047ef565b620047fb565b62003a73620043dc565b5f805f9054906101000a900473ffffffffffffffffffffffffffffffffffffffff1690505f73ffffffffffffffffffffffffffffffffffffffff168173ffffffffffffffffffffffffffffffffffffffff16148062003ae857505f8173ffffffffffffffffffffffffffffffffffffffff163b145b1562003b20576040517f9bc021a900000000000000000000000000000000000000000000000000000000815260040160405180910390fd5b5f8073ffffffffffffffffffffffffffffffffffffffff1663e190febc8460405160240162003b50919062008567565b604051602081830303815290604052915060e01b6020820180517bffffffffffffffffffffffffffffffffffffffffffffffffffffffff838183161783525050505090505f8273ffffffffffffffffffffffffffffffffffffffff168260405162003bbc9190620085c9565b5f60405180830381855af49150503d805f811462003bf6576040519150601f19603f3d011682016040523d82523d5f602084013e62003bfb565b606091505b505090508062003c37576040517f6f1f970c00000000000000000000000000000000000000000000000000000000815260040160405180910390fd5b50505050565b5f62003c4b85858562001b58565b90508181101562003c88576040517ff033da7000000000000000000000000000000000000000000000000000000000815260040160405180910390fd5b949350505050565b5f8060015f9054906101000a900473ffffffffffffffffffffffffffffffffffffffff1673ffffffffffffffffffffffffffffffffffffffff1663ef8b30f7846040518263ffffffff1660e01b815260040162003cee91906200736b565b602060405180830381865afa15801562003d0a573d5f803e3d5ffd5b505050506040513d601f19601f8201168201806040525081019062003d30919062007d39565b905062003d3d8162001305565b915050919050565b5f8062003d525f62004157565b9150508091505090565b62003d7a62003d6a62004603565b62003d74620047ef565b620047fb565b62003d8462005d12565b565b5f62003d91620043dc565b5f8062003d9d62005d88565b915091505f600c5f8673ffffffffffffffffffffffffffffffffffffffff1673ffffffffffffffffffffffffffffffffffffffff1681526020019081526020015f2054905081811462003e2d5781600c5f8773ffffffffffffffffffffffffffffffffffffffff1673ffffffffffffffffffffffffffffffffffffffff1681526020019081526020015f20819055505b5f600d5f8773ffffffffffffffffffffffffffffffffffffffff1673ffffffffffffffffffffffffffffffffffffffff1681526020019081526020015f2054905083811462003eb95783600d5f8873ffffffffffffffffffffffffffffffffffffffff1673ffffffffffffffffffffffffffffffffffffffff1681526020019081526020015f20819055505b5f821462004047578573ffffffffffffffffffffffffffffffffffffffff1673__$dbb3817a7cc7bc396930b3b6b8b46fd35d$__6314d9ebd89091600e5f8a73ffffffffffffffffffffffffffffffffffffffff1673ffffffffffffffffffffffffffffffffffffffff1681526020019081526020015f20548587868a60035f9054906101000a900473ffffffffffffffffffffffffffffffffffffffff166040518863ffffffff1660e01b815260040162003f7c979695949392919062007e53565b602060405180830381865af415801562003f98573d5f803e3d5ffd5b505050506040513d601f19601f8201168201806040525081019062003fbe919062007d39565b945084600e5f8873ffffffffffffffffffffffffffffffffffffffff1673ffffffffffffffffffffffffffffffffffffffff1681526020019081526020015f2081905550848673ffffffffffffffffffffffffffffffffffffffff167f18cb9436df0c2ab8f3a0284742076c6ddf8a478776316b4b0d008d793723549060405160405180910390a35b50505050919050565b5f6200405b62001f94565b6200407c57620040766200406f8362005adf565b5f62004771565b6200407e565b5f5b9050919050565b5f6200409062005df4565b90506002815f015403620040d0576040517f3ee5aeb500000000000000000000000000000000000000000000000000000000815260040160405180910390fd5b6002815f018190555050565b600954421062004101575f600b5403620040fb57620040fa62002777565b5b6200410e565b6200410c8162003d86565b505b620041198162003741565b82111562004153576040517ff4d678b800000000000000000000000000000000000000000000000000000000815260040160405180910390fd5b5050565b5f805f600b54036200417c576200416e83620051d2565b80925081935050506200418b565b60055460065480925081935050505b915091565b5f808303620041cb576040517fa2541d4200000000000000000000000000000000000000000000000000000000815260040160405180910390fd5b620041e5828460018962005e1b909392919063ffffffff16565b90503373ffffffffffffffffffffffffffffffffffffffff168473ffffffffffffffffffffffffffffffffffffffff161462004229576200422884338362004957565b5b600954421015620042c45760035f9054906101000a900473ffffffffffffffffffffffffffffffffffffffff1673ffffffffffffffffffffffffffffffffffffffff1663ee4278328533846040518463ffffffff1660e01b81526004016200429493929190620085e1565b5f604051808303815f87803b158015620042ac575f80fd5b505af1158015620042bf573d5f803e3d5ffd5b505050505b620042d0848262005e7b565b8473ffffffffffffffffffffffffffffffffffffffff168473ffffffffffffffffffffffffffffffffffffffff167fd12200efa34901b99367694174c3b0d32c99585fdf37c7c26892136ddd0836d9836040516200432f91906200736b565b60405180910390a395945050505050565b620043be838473ffffffffffffffffffffffffffffffffffffffff1663a9059cbb8585604051602401620043769291906200861c565b604051602081830303815290604052915060e01b6020820180517bffffffffffffffffffffffffffffffffffffffffffffffffffffffff838183161783525050505062005eff565b505050565b5f620043ce62005df4565b90506001815f018190555050565b620043e662001f94565b156200441e576040517fd93c066500000000000000000000000000000000000000000000000000000000815260040160405180910390fd5b565b5f620045668273ffffffffffffffffffffffffffffffffffffffff16632377b16685336040518363ffffffff1660e01b815260040162004462929190620084f2565b602060405180830381865afa1580156200447e573d5f803e3d5ffd5b505050506040513d601f19601f82011682018060405250810190620044a4919062007d39565b670de0b6b3a7640000620044b9919062007d96565b670de0b6b3a76400006001620045558673ffffffffffffffffffffffffffffffffffffffff1663abfa94466040518163ffffffff1660e01b8152600401602060405180830381865afa15801562004512573d5f803e3d5ffd5b505050506040513d601f19601f8201168201806040525081019062004538919062007d39565b670de0b6b3a764000060018b62005e1b909392919063ffffffff16565b62005e1b909392919063ffffffff16565b90509392505050565b5f805f6200457e600162004157565b915091505f8203620045bc576040517fa2541d4200000000000000000000000000000000000000000000000000000000815260040160405180910390fd5b620045d381838662005f9c9092919063ffffffff16565b92505050919050565b5f7f52c63247e1f47db19d5ce0460030c497f067ca4cebf71ba98eeadabe20bace00905090565b5f33905090565b620046198383836001620060a1565b505050565b5f620046b08273ffffffffffffffffffffffffffffffffffffffff16633819e5d36040518163ffffffff1660e01b8152600401602060405180830381865afa1580156200466d573d5f803e3d5ffd5b505050506040513d601f19601f8201168201806040525081019062004693919062007d39565b670de0b6b3a764000060018662005e1b909392919063ffffffff16565b905092915050565b5f620046c43362003d86565b90505f8103620046d7575f90506200476e565b5f600e5f3373ffffffffffffffffffffffffffffffffffffffff1673ffffffffffffffffffffffffffffffffffffffff1681526020019081526020015f20819055505f6200474f7f0000000000000000000000000000000000000000000000000000000000000000836200461e90919063ffffffff16565b90506200475c8162004eae565b80826200476a919062007d96565b9150505b90565b5f805f6200477f5f62004157565b915091505f8103620047bd576040517fa2541d4200000000000000000000000000000000000000000000000000000000815260040160405180910390fd5b620047e5828286620047d0575f620047d3565b60015b8862005e1b909392919063ffffffff16565b9250505092915050565b365f8036915091509091565b5f62004806620051ab565b90505f80620048426200481862002f5c565b873088885f906004926200482f939291906200864f565b906200483c9190620086a5565b62006289565b91509150816200494f575f8163ffffffff1611156200490f576001835f0160146101000a81548160ff0219169083151502179055506200488162002f5c565b73ffffffffffffffffffffffffffffffffffffffff166394c7d7ee8787876040518463ffffffff1660e01b8152600401620048bf939291906200870a565b5f604051808303815f87803b158015620048d7575f80fd5b505af1158015620048ea573d5f803e3d5ffd5b505050505f835f0160146101000a81548160ff0219169083151502179055506200494e565b856040517f068ca9d800000000000000000000000000000000000000000000000000000000815260040162004945919062007397565b60405180910390fd5b5b505050505050565b5f620049648484620039b9565b90507fffffffffffffffffffffffffffffffffffffffffffffffffffffffffffffffff8114620049eb5781811015620049da578281836040517ffb8f41b2000000000000000000000000000000000000000000000000000000008152600401620049d1939291906200873e565b60405180910390fd5b620049ea84848484035f620060a1565b5b50505050565b5f73ffffffffffffffffffffffffffffffffffffffff168373ffffffffffffffffffffffffffffffffffffffff160362004a64575f6040517f96c6fd1e00000000000000000000000000000000000000000000000000000000815260040162004a5b919062007397565b60405180910390fd5b5f73ffffffffffffffffffffffffffffffffffffffff168273ffffffffffffffffffffffffffffffffffffffff160362004ad7575f6040517fec442f0500000000000000000000000000000000000000000000000000000000815260040162004ace919062007397565b60405180910390fd5b62004ae4838383620063b8565b505050565b5f805f62004af75f62004157565b915091505f820362004b35576040517fa2541d4200000000000000000000000000000000000000000000000000000000815260040160405180910390fd5b62004b5d81838662004b48575f62004b4b565b60015b8862005e1b909392919063ffffffff16565b9250505092915050565b62004be7848573ffffffffffffffffffffffffffffffffffffffff166323b872dd86868660405160240162004b9f93929190620085e1565b604051602081830303815290604052915060e01b6020820180517bffffffffffffffffffffffffffffffffffffffffffffffffffffffff838183161783525050505062005eff565b50505050565b5f8373ffffffffffffffffffffffffffffffffffffffff1663dd62ed3e30856040518363ffffffff1660e01b815260040162004c2b929190620084f2565b602060405180830381865afa15801562004c47573d5f803e3d5ffd5b505050506040513d601f19601f8201168201806040525081019062004c6d919062007d39565b905062004c898484848462004c83919062008020565b620063d4565b50505050565b5f600954421062004ccc576040517f5bc2b95a00000000000000000000000000000000000000000000000000000000815260040160405180910390fd5b62004cd78262003d86565b505f62004d10307f000000000000000000000000000000000000000000000000000000000000000087620044209092919063ffffffff16565b905062004d1d8162004eae565b62004d36818662004d2f919062007d96565b5f62004ae9565b91505f820362004d72576040517fa2541d4200000000000000000000000000000000000000000000000000000000815260040160405180910390fd5b62004d7e8483620064ec565b8373ffffffffffffffffffffffffffffffffffffffff163373ffffffffffffffffffffffffffffffffffffffff167fab8530f87dc9b59234c4623bf917212bb2536d647574c8e7e5da92c2ede0c9f88460405162004ddd91906200736b565b60405180910390a360035f9054906101000a900473ffffffffffffffffffffffffffffffffffffffff1673ffffffffffffffffffffffffffffffffffffffff166340c10f1984846040518363ffffffff1660e01b815260040162004e439291906200861c565b5f604051808303815f87803b15801562004e5b575f80fd5b505af115801562004e6e573d5f803e3d5ffd5b50505050509392505050565b5f62004e8562006570565b905090565b5f8062004e96620065d9565b9050805f015f9054906101000a900460ff1691505090565b8060075462004ebe919062008020565b6007819055508060085462004ed4919062008020565b60088190555050565b5f62004ee8620051ab565b905081815f015f6101000a81548173ffffffffffffffffffffffffffffffffffffffff021916908373ffffffffffffffffffffffffffffffffffffffff1602179055507f2f658b440c35314f52658ea8a740e05b284cdc84dc9ae01e891f21b8933e7cad8260405162004f5c919062007397565b60405180910390a15050565b5f8062004f7462006600565b9050805f015f8473ffffffffffffffffffffffffffffffffffffffff1673ffffffffffffffffffffffffffffffffffffffff1681526020019081526020015f2054915050919050565b62004fc7620043dc565b5f62004fd2620065d9565b90506001815f015f6101000a81548160ff0219169083151502179055507f62e78cea01bee320cd4e420270b5ea74000d11b0c9f74754ebdbfc544b05a2586200501a62004603565b60405162005029919062007397565b60405180910390a150565b5f7fa16a46d94261c7517cc8ff89f61c0ce93598e3c849801011dee649a6a557d100905090565b60605f6200506862005034565b90508060020180546200507b9062007dfd565b80601f0160208091040260200160405190810160405280929190818152602001828054620050a99062007dfd565b8015620050f85780601f10620050ce57610100808354040283529160200191620050f8565b820191905f5260205f20905b815481529060010190602001808311620050da57829003601f168201915b505050505091505090565b60605f6200511062005034565b9050806003018054620051239062007dfd565b80601f0160208091040260200160405190810160405280929190818152602001828054620051519062007dfd565b8015620051a05780601f106200517657610100808354040283529160200191620051a0565b820191905f5260205f20905b8154815290600101906020018083116200518257829003601f168201915b505050505091505090565b5f7ff3177357ab46d8af007ab3fdb9af81da189e1068fefdc0073dca88a2cab40a00905090565b5f805f60015f9054906101000a900473ffffffffffffffffffffffffffffffffffffffff1690506200529d5f60159054906101000a900460ff1660ff168273ffffffffffffffffffffffffffffffffffffffff16634cdad5066004546040518263ffffffff1660e01b81526004016200524c91906200736b565b602060405180830381865afa15801562005268573d5f803e3d5ffd5b505050506040513d601f19601f820116820180604052508101906200528e919062007d39565b6200575e90919063ffffffff16565b91505f8173ffffffffffffffffffffffffffffffffffffffff166301e1d1146040518163ffffffff1660e01b8152600401602060405180830381865afa158015620052ea573d5f803e3d5ffd5b505050506040513d601f19601f8201168201806040525081019062005310919062007d39565b1480156200538d57505f8173ffffffffffffffffffffffffffffffffffffffff166318160ddd6040518163ffffffff1660e01b8152600401602060405180830381865afa15801562005364573d5f803e3d5ffd5b505050506040513d601f19601f820116820180604052508101906200538a919062007d39565b14155b1562005397575f91505b6006548210620053aa57600554620053d7565b620053d68260065486620053bf575f620053c2565b60015b60055462005e1b909392919063ffffffff16565b5b925050915091565b3373ffffffffffffffffffffffffffffffffffffffff168173ffffffffffffffffffffffffffffffffffffffff161462005421576200542081338462004957565b5b6200542c8162005adf565b82111562005466576040517ff4d678b800000000000000000000000000000000000000000000000000000000815260040160405180910390fd5b60095442106200548b575f600b540362005485576200548462002777565b5b62005527565b620054968162003d86565b5060035f9054906101000a900473ffffffffffffffffffffffffffffffffffffffff1673ffffffffffffffffffffffffffffffffffffffff1663ee4278328233856040518463ffffffff1660e01b8152600401620054f793929190620085e1565b5f604051808303815f87803b1580156200550f575f80fd5b505af115801562005522573d5f803e3d5ffd5b505050505b62005533818362005e7b565b5050565b5f7ff0c57e16840df040f15088dc2f81fe391c3923bec73e23a9662efc9c229c6a00905090565b60605f6200556c8362006627565b90505f620055b0856040518060400160405280600181526020017f2d00000000000000000000000000000000000000000000000000000000000000815250620067c2565b9050620055fe620055f76040518060400160405280601181526020017f5072696e636970616c20546f6b656e3a2000000000000000000000000000000081525083620067c2565b83620067c2565b9250505092915050565b60605f620056168362006627565b90505f6200565a856040518060400160405280600181526020017f2d00000000000000000000000000000000000000000000000000000000000000815250620067c2565b9050620056a8620056a16040518060400160405280600381526020017f50542d000000000000000000000000000000000000000000000000000000000081525083620067c2565b83620067c2565b9250505092915050565b620056bc620067f0565b620056c8828262006833565b5050565b620056d6620067f0565b62005717816040518060400160405280600181526020017f310000000000000000000000000000000000000000000000000000000000000081525062006877565b50565b62005724620067f0565b6200572e620068d0565b565b6200573a620067f0565b6200574462006904565b565b62005750620067f0565b6200575b8162006927565b50565b5f8082601b6200576f919062007d96565b600a6200577d919062008779565b90508084029150838183041462005792575f80fd5b5092915050565b60605f620057a78362006627565b90505f620057eb856040518060400160405280600181526020017f2d00000000000000000000000000000000000000000000000000000000000000815250620067c2565b905062005839620058326040518060400160405280600d81526020017f5969656c6420546f6b656e3a200000000000000000000000000000000000000081525083620067c2565b83620067c2565b9250505092915050565b60605f620058518362006627565b90505f62005895856040518060400160405280600181526020017f2d00000000000000000000000000000000000000000000000000000000000000815250620067c2565b9050620058e3620058dc6040518060400160405280600381526020017f59542d000000000000000000000000000000000000000000000000000000000081525083620067c2565b83620067c2565b9250505092915050565b5f807f000000000000000000000000000000000000000000000000000000000000000073ffffffffffffffffffffffffffffffffffffffff1663eb2004ce6040518163ffffffff1660e01b8152600401602060405180830381865afa15801562005959573d5f803e3d5ffd5b505050506040513d601f19601f820116820180604052508101906200597f9190620080de565b90505f73ffffffffffffffffffffffffffffffffffffffff168173ffffffffffffffffffffffffffffffffffffffff1603620059e7576040517fee755c3e00000000000000000000000000000000000000000000000000000000815260040160405180910390fd5b805f73ffffffffffffffffffffffffffffffffffffffff1663077f224a86863060405160240162005a1b93929190620087c9565b604051602081830303815290604052915060e01b6020820180517bffffffffffffffffffffffffffffffffffffffffffffffffffffffff838183161783525050505060405162005a6b9062007249565b62005a7892919062008812565b604051809103905ff08015801562005a92573d5f803e3d5ffd5b5091508173ffffffffffffffffffffffffffffffffffffffff167f10aa3cadb8a18de745ab06d0fba238e60656c418d78284b27ab6ea75b7b789e460405160405180910390a25092915050565b5f600954421062005afd5762005af58262002325565b905062005bc2565b5f62005b098362002325565b90505f60035f9054906101000a900473ffffffffffffffffffffffffffffffffffffffff1673ffffffffffffffffffffffffffffffffffffffff166370a08231856040518263ffffffff1660e01b815260040162005b68919062007397565b602060405180830381865afa15801562005b84573d5f803e3d5ffd5b505050506040513d601f19601f8201168201806040525081019062005baa919062007d39565b905080821162005bbb578162005bbd565b805b925050505b919050565b5f8062005bd362006600565b9050805f015f8473ffffffffffffffffffffffffffffffffffffffff1673ffffffffffffffffffffffffffffffffffffffff1681526020019081526020015f205f81548092919060010191905055915050919050565b5f62005c3f62005c3862004e7a565b836200693f565b9050919050565b5f805f8062005c58888888886200697f565b92509250925062005c6a828262006a6d565b829350505050949350505050565b5f62005d0a8273ffffffffffffffffffffffffffffffffffffffff16632f2f3d4e6040518163ffffffff1660e01b8152600401602060405180830381865afa15801562005cc7573d5f803e3d5ffd5b505050506040513d601f19601f8201168201806040525081019062005ced919062007d39565b670de0b6b3a764000060018662005e1b909392919063ffffffff16565b905092915050565b62005d1c62006bef565b5f62005d27620065d9565b90505f815f015f6101000a81548160ff0219169083151502179055507f5db9ee0a495bf2e6ff9c91a7834c1ba4fdd244a5e8aa4e537bd38aeae4b073aa62005d6e62004603565b60405162005d7d919062007397565b60405180910390a150565b5f805f600954905080421062005dae575f600b540362005dad5762005dac62002777565b5b5b62005db95f62004157565b80935081945050508042101562005def57600654821462005ddc57816006819055505b600554831462005dee57826005819055505b5b509091565b5f7f9b779b17422d0df92223018b32b4d1fa46e071723d6817e2486d003becc55f00905090565b5f8062005e2a86868662005f9c565b905062005e378362006c32565b801562005e5757505f848062005e525762005e5162008844565b5b868809115b1562005e6f5760018162005e6c919062008020565b90505b80915050949350505050565b5f73ffffffffffffffffffffffffffffffffffffffff168273ffffffffffffffffffffffffffffffffffffffff160362005eee575f6040517f96c6fd1e00000000000000000000000000000000000000000000000000000000815260040162005ee5919062007397565b60405180910390fd5b62005efb825f83620063b8565b5050565b5f62005f2b828473ffffffffffffffffffffffffffffffffffffffff1662006c6490919063ffffffff16565b90505f81511415801562005f5257508080602001905181019062005f509190620088a0565b155b1562005f9757826040517f5274afe700000000000000000000000000000000000000000000000000000000815260040162005f8e919062007397565b60405180910390fd5b505050565b5f8083850290505f8019858709828110838203039150505f810362005fd95783828162005fce5762005fcd62008844565b5b04925050506200609a565b80841162006013576040517f227bc15300000000000000000000000000000000000000000000000000000000815260040160405180910390fd5b5f8486880990508281118203915080830392505f855f038616905080860495508084049350600181825f0304019050808302841793505f600287600302189050808702600203810290508087026002038102905080870260020381029050808702600203810290508087026002038102905080870260020381029050808502955050505050505b9392505050565b5f620060ac620045dc565b90505f73ffffffffffffffffffffffffffffffffffffffff168573ffffffffffffffffffffffffffffffffffffffff160362006121575f6040517fe602df0500000000000000000000000000000000000000000000000000000000815260040162006118919062007397565b60405180910390fd5b5f73ffffffffffffffffffffffffffffffffffffffff168473ffffffffffffffffffffffffffffffffffffffff160362006194575f6040517f94280d620000000000000000000000000000000000000000000000000000000081526004016200618b919062007397565b60405180910390fd5b82816001015f8773ffffffffffffffffffffffffffffffffffffffff1673ffffffffffffffffffffffffffffffffffffffff1681526020019081526020015f205f8673ffffffffffffffffffffffffffffffffffffffff1673ffffffffffffffffffffffffffffffffffffffff1681526020019081526020015f2081905550811562006282578373ffffffffffffffffffffffffffffffffffffffff168573ffffffffffffffffffffffffffffffffffffffff167f8c5be1e5ebec7d5bd14f71427d1e84f3dd0314c0f7b2291e5b200ac8c7c3b925856040516200627991906200736b565b60405180910390a35b5050505050565b5f805f808773ffffffffffffffffffffffffffffffffffffffff16878787604051602401620062bb93929190620088d0565b60405160208183030381529060405263b700961360e01b6020820180517bffffffffffffffffffffffffffffffffffffffffffffffffffffffff83818316178352505050506040516200630f9190620085c9565b5f60405180830381855afa9150503d805f811462006349576040519150601f19603f3d011682016040523d82523d5f602084013e6200634e565b606091505b50915091508115620063ad5760408151106200638857808060200190518101906200637a919062008949565b8094508195505050620063ac565b6020815110620063ab5780806020019051810190620063a89190620088a0565b93505b5b5b505094509492505050565b620063c2620043dc565b620063cf83838362006c7b565b505050565b5f8373ffffffffffffffffffffffffffffffffffffffff1663095ea7b38484604051602401620064069291906200861c565b604051602081830303815290604052915060e01b6020820180517bffffffffffffffffffffffffffffffffffffffffffffffffffffffff8381831617835250505050905062006456848262006eb7565b620064e657620064d9848573ffffffffffffffffffffffffffffffffffffffff1663095ea7b3865f60405160240162006491929190620089cf565b604051602081830303815290604052915060e01b6020820180517bffffffffffffffffffffffffffffffffffffffffffffffffffffffff838183161783525050505062005eff565b620064e5848262005eff565b5b50505050565b5f73ffffffffffffffffffffffffffffffffffffffff168273ffffffffffffffffffffffffffffffffffffffff16036200655f575f6040517fec442f0500000000000000000000000000000000000000000000000000000000815260040162006556919062007397565b60405180910390fd5b6200656c5f8383620063b8565b5050565b5f7f8b73c3c69bb8fe3d512ecc4cf759cc79239f7b179b0ffacaa9a75d522b39400f6200659c62006f7f565b620065a662006ffd565b4630604051602001620065be959493929190620089fa565b60405160208183030381529060405280519060200120905090565b5f7fcd5ed15c6e187e77e9aee88184c21f4f2182ab5827cb3b7e07fbedcd63f03300905090565b5f7f5ab42ced628888259c08ac98db1eb0cf702fc1501344311d8b100cd1bfe4bb00905090565b60605f82036200666f576040518060400160405280600181526020017f30000000000000000000000000000000000000000000000000000000000000008152509050620067bd565b5f8290505f5b5f8214620066a45780806200668a9062008a55565b915050600a826200669c919062008aa1565b915062006675565b5f8167ffffffffffffffff811115620066c257620066c162007b94565b5b6040519080825280601f01601f191660200182016040528015620066f55781602001600182028036833780820191505090505b5090505f8290505b5f8614620067b55760018162006714919062007d96565b90505f600a808862006727919062008aa1565b62006733919062008ad8565b8762006740919062007d96565b60306200674e919062008b22565b90505f8160f81b9050808484815181106200676e576200676d62008b5d565b5b60200101907effffffffffffffffffffffffffffffffffffffffffffffffffffffffffffff191690815f1a905350600a88620067ab919062008aa1565b97505050620066fd565b819450505050505b919050565b60608282604051602001620067d992919062008bca565b604051602081830303815290604052905092915050565b620067fa6200707c565b62006831576040517fd7e6bcf800000000000000000000000000000000000000000000000000000000815260040160405180910390fd5b565b6200683d620067f0565b5f62006848620045dc565b9050828160030190816200685d919062008d9f565b508181600401908162006871919062008d9f565b50505050565b62006881620067f0565b5f6200688c62005034565b905082816002019081620068a1919062008d9f565b5081816003019081620068b5919062008d9f565b505f801b815f01819055505f801b8160010181905550505050565b620068da620067f0565b5f620068e5620065d9565b90505f815f015f6101000a81548160ff02191690831515021790555050565b6200690e620067f0565b5f6200691962005df4565b90506001815f018190555050565b62006931620067f0565b6200693c8162004edd565b50565b5f6040517f190100000000000000000000000000000000000000000000000000000000000081528360028201528260228201526042812091505092915050565b5f805f7f7fffffffffffffffffffffffffffffff5d576e7357a4501ddfe92f46681b20a0845f1c1115620069bd575f60038592509250925062006a63565b5f6001888888886040515f8152602001604052604051620069e2949392919062008e83565b6020604051602081039080840390855afa15801562006a03573d5f803e3d5ffd5b5050506020604051035190505f73ffffffffffffffffffffffffffffffffffffffff168173ffffffffffffffffffffffffffffffffffffffff160362006a56575f60015f801b9350935093505062006a63565b805f805f1b935093509350505b9450945094915050565b5f600381111562006a835762006a8262008ece565b5b82600381111562006a995762006a9862008ece565b5b031562006beb576001600381111562006ab75762006ab662008ece565b5b82600381111562006acd5762006acc62008ece565b5b0362006b05576040517ff645eedf00000000000000000000000000000000000000000000000000000000815260040160405180910390fd5b6002600381111562006b1c5762006b1b62008ece565b5b82600381111562006b325762006b3162008ece565b5b0362006b7957805f1c6040517ffce698f700000000000000000000000000000000000000000000000000000000815260040162006b7091906200736b565b60405180910390fd5b60038081111562006b8f5762006b8e62008ece565b5b82600381111562006ba55762006ba462008ece565b5b0362006bea57806040517fd78bce0c00000000000000000000000000000000000000000000000000000000815260040162006be191906200765e565b60405180910390fd5b5b5050565b62006bf962001f94565b62006c30576040517f8dfc202b00000000000000000000000000000000000000000000000000000000815260040160405180910390fd5b565b5f6001600283600381111562006c4d5762006c4c62008ece565b5b62006c59919062008efb565b60ff16149050919050565b606062006c7383835f6200709c565b905092915050565b5f62006c86620045dc565b90505f73ffffffffffffffffffffffffffffffffffffffff168473ffffffffffffffffffffffffffffffffffffffff160362006cde5781816002015f82825462006cd1919062008020565b9250508190555062006db3565b5f815f015f8673ffffffffffffffffffffffffffffffffffffffff1673ffffffffffffffffffffffffffffffffffffffff1681526020019081526020015f205490508281101562006d6c578481846040517fe450d38c00000000000000000000000000000000000000000000000000000000815260040162006d63939291906200873e565b60405180910390fd5b828103825f015f8773ffffffffffffffffffffffffffffffffffffffff1673ffffffffffffffffffffffffffffffffffffffff1681526020019081526020015f2081905550505b5f73ffffffffffffffffffffffffffffffffffffffff168373ffffffffffffffffffffffffffffffffffffffff160362006dfe5781816002015f828254039250508190555062006e4a565b81815f015f8573ffffffffffffffffffffffffffffffffffffffff1673ffffffffffffffffffffffffffffffffffffffff1681526020019081526020015f205f82825401925050819055505b8273ffffffffffffffffffffffffffffffffffffffff168473ffffffffffffffffffffffffffffffffffffffff167fddf252ad1be2c89b69c2b068fc378daa952ba7f163c4a11628f55a4df523b3ef8460405162006ea991906200736b565b60405180910390a350505050565b5f805f8473ffffffffffffffffffffffffffffffffffffffff168460405162006ee19190620085c9565b5f604051808303815f865af19150503d805f811462006f1c576040519150601f19603f3d011682016040523d82523d5f602084013e62006f21565b606091505b509150915081801562006f5257505f8151148062006f5157508080602001905181019062006f509190620088a0565b5b5b801562006f7557505f8573ffffffffffffffffffffffffffffffffffffffff163b115b9250505092915050565b5f8062006f8b62005034565b90505f62006f986200505b565b90505f8151111562006fb65780805190602001209250505062006ffa565b5f825f015490505f801b811462006fd35780935050505062006ffa565b7fc5d2460186f7233c927e7db2dcc703c0e500b653ca82273b7bfad8045d85a47093505050505b90565b5f806200700962005034565b90505f6200701662005103565b90505f81511115620070345780805190602001209250505062007079565b5f826001015490505f801b8114620070525780935050505062007079565b7fc5d2460186f7233c927e7db2dcc703c0e500b653ca82273b7bfad8045d85a47093505050505b90565b5f6200708762005537565b5f0160089054906101000a900460ff16905090565b606081471015620070e657306040517fcd786059000000000000000000000000000000000000000000000000000000008152600401620070dd919062007397565b60405180910390fd5b5f808573ffffffffffffffffffffffffffffffffffffffff168486604051620071109190620085c9565b5f6040518083038185875af1925050503d805f81146200714c576040519150601f19603f3d011682016040523d82523d5f602084013e62007151565b606091505b5091509150620071638683836200716e565b925050509392505050565b6060826200718757620071818262007204565b620071fc565b5f8251148015620071ae57505f8473ffffffffffffffffffffffffffffffffffffffff163b145b15620071f357836040517f9996b315000000000000000000000000000000000000000000000000000000008152600401620071ea919062007397565b60405180910390fd5b819050620071fd565b5b9392505050565b5f81511115620072175780518082602001fd5b6040517f1425ea4200000000000000000000000000000000000000000000000000000000815260040160405180910390fd5b61091b8062008f3383390190565b5f604051905090565b5f80fd5b5f80fd5b5f819050919050565b6200727c8162007268565b811462007287575f80fd5b50565b5f813590506200729a8162007271565b92915050565b5f73ffffffffffffffffffffffffffffffffffffffff82169050919050565b5f620072cb82620072a0565b9050919050565b620072dd81620072bf565b8114620072e8575f80fd5b50565b5f81359050620072fb81620072d2565b92915050565b5f805f606084860312156200731b576200731a62007260565b5b5f6200732a868287016200728a565b93505060206200733d86828701620072eb565b92505060406200735086828701620072eb565b9150509250925092565b620073658162007268565b82525050565b5f602082019050620073805f8301846200735a565b92915050565b6200739181620072bf565b82525050565b5f602082019050620073ac5f83018462007386565b92915050565b5f60208284031215620073ca57620073c962007260565b5b5f620073d9848285016200728a565b91505092915050565b5f81519050919050565b5f82825260208201905092915050565b5f5b838110156200741b578082015181840152602081019050620073fe565b5f8484015250505050565b5f601f19601f8301169050919050565b5f6200744282620073e2565b6200744e8185620073ec565b935062007460818560208601620073fc565b6200746b8162007426565b840191505092915050565b5f6020820190508181035f83015262007490818462007436565b905092915050565b5f8060408385031215620074b157620074b062007260565b5b5f620074c085828601620072eb565b9250506020620074d3858286016200728a565b9150509250929050565b5f8115159050919050565b620074f381620074dd565b82525050565b5f6020820190506200750e5f830184620074e8565b92915050565b5f602082840312156200752c576200752b62007260565b5b5f6200753b84828501620072eb565b91505092915050565b5f805f606084860312156200755e576200755d62007260565b5b5f6200756d86828701620072eb565b93505060206200758086828701620072eb565b925050604062007593868287016200728a565b9150509250925092565b5f805f8060808587031215620075b857620075b762007260565b5b5f620075c7878288016200728a565b9450506020620075da87828801620072eb565b9350506040620075ed87828801620072eb565b925050606062007600878288016200728a565b91505092959194509250565b5f60ff82169050919050565b62007623816200760c565b82525050565b5f6020820190506200763e5f83018462007618565b92915050565b5f819050919050565b620076588162007644565b82525050565b5f602082019050620076735f8301846200764d565b92915050565b5f806040838503121562007692576200769162007260565b5b5f620076a1858286016200728a565b9250506020620076b485828601620072eb565b9150509250929050565b5f8060408385031215620076d757620076d662007260565b5b5f620076e685828601620072eb565b9250506020620076f985828601620072eb565b9150509250929050565b5f6200770f82620072bf565b9050919050565b620077218162007703565b81146200772c575f80fd5b50565b5f813590506200773f8162007716565b92915050565b5f80fd5b5f80fd5b5f80fd5b5f8083601f84011262007769576200776862007745565b5b8235905067ffffffffffffffff81111562007789576200778862007749565b5b602083019150836001820283011115620077a857620077a76200774d565b5b9250929050565b5f805f805f60808688031215620077cb57620077ca62007260565b5b5f620077da888289016200772f565b9550506020620077ed88828901620072eb565b945050604062007800888289016200728a565b935050606086013567ffffffffffffffff81111562007824576200782362007264565b5b620078328882890162007751565b92509250509295509295909350565b5f7fff0000000000000000000000000000000000000000000000000000000000000082169050919050565b620078778162007841565b82525050565b5f81519050919050565b5f82825260208201905092915050565b5f819050602082019050919050565b620078b18162007268565b82525050565b5f620078c48383620078a6565b60208301905092915050565b5f602082019050919050565b5f620078e8826200787d565b620078f4818562007887565b9350620079018362007897565b805f5b83811015620079375781516200791b8882620078b7565b97506200792883620078d0565b92505060018101905062007904565b5085935050505092915050565b5f60e082019050620079595f83018a6200786c565b81810360208301526200796d818962007436565b9050818103604083015262007983818862007436565b90506200799460608301876200735a565b620079a3608083018662007386565b620079b260a08301856200764d565b81810360c0830152620079c68184620078dc565b905098975050505050505050565b5f7fffffffff0000000000000000000000000000000000000000000000000000000082169050919050565b62007a0a81620079d4565b82525050565b5f60208201905062007a255f830184620079ff565b92915050565b5f805f6060848603121562007a455762007a4462007260565b5b5f62007a5486828701620072eb565b935050602062007a67868287016200728a565b925050604062007a7a86828701620072eb565b9150509250925092565b62007a8f816200760c565b811462007a9a575f80fd5b50565b5f8135905062007aad8162007a84565b92915050565b62007abe8162007644565b811462007ac9575f80fd5b50565b5f8135905062007adc8162007ab3565b92915050565b5f805f805f805f60e0888a03121562007b005762007aff62007260565b5b5f62007b0f8a828b01620072eb565b975050602062007b228a828b01620072eb565b965050604062007b358a828b016200728a565b955050606062007b488a828b016200728a565b945050608062007b5b8a828b0162007a9d565b93505060a062007b6e8a828b0162007acc565b92505060c062007b818a828b0162007acc565b91505092959891949750929550565b5f80fd5b7f4e487b71000000000000000000000000000000000000000000000000000000005f52604160045260245ffd5b62007bcc8262007426565b810181811067ffffffffffffffff8211171562007bee5762007bed62007b94565b5b80604052505050565b5f62007c0262007257565b905062007c10828262007bc1565b919050565b5f67ffffffffffffffff82111562007c325762007c3162007b94565b5b62007c3d8262007426565b9050602081019050919050565b828183375f83830152505050565b5f62007c6e62007c688462007c15565b62007bf7565b90508281526020810184848401111562007c8d5762007c8c62007b90565b5b62007c9a84828562007c4a565b509392505050565b5f82601f83011262007cb95762007cb862007745565b5b813562007ccb84826020860162007c58565b91505092915050565b5f6020828403121562007cec5762007ceb62007260565b5b5f82013567ffffffffffffffff81111562007d0c5762007d0b62007264565b5b62007d1a8482850162007ca2565b91505092915050565b5f8151905062007d338162007271565b92915050565b5f6020828403121562007d515762007d5062007260565b5b5f62007d608482850162007d23565b91505092915050565b7f4e487b71000000000000000000000000000000000000000000000000000000005f52601160045260245ffd5b5f62007da28262007268565b915062007daf8362007268565b925082820390508181111562007dca5762007dc962007d69565b5b92915050565b7f4e487b71000000000000000000000000000000000000000000000000000000005f52602260045260245ffd5b5f600282049050600182168062007e1557607f821691505b60208210810362007e2b5762007e2a62007dd0565b5b50919050565b62007e3c81620072bf565b82525050565b62007e4d8162007268565b82525050565b5f60e08201905062007e685f83018a62007e31565b62007e77602083018962007e42565b62007e86604083018862007e42565b62007e95606083018762007e42565b62007ea4608083018662007e42565b62007eb360a083018562007e42565b62007ec260c083018462007e31565b98975050505050505050565b5f60608201905062007ee35f8301866200735a565b62007ef2602083018562007386565b62007f01604083018462007386565b949350505050565b5f60408201905062007f1e5f8301856200735a565b62007f2d602083018462007386565b9392505050565b5f82825260208201905092915050565b5f62007f51838562007f34565b935062007f6083858462007c4a565b62007f6b8362007426565b840190509392505050565b5f60a08201905062007f8b5f83018962007386565b62007f9a602083018862007386565b62007fa960408301876200735a565b62007fb860608301866200735a565b818103608083015262007fcd81848662007f44565b9050979650505050505050565b5f8151905062007fea8162007ab3565b92915050565b5f6020828403121562008008576200800762007260565b5b5f620080178482850162007fda565b91505092915050565b5f6200802c8262007268565b9150620080398362007268565b925082820190508082111562008054576200805362007d69565b5b92915050565b7f4549503731323a20556e696e697469616c697a656400000000000000000000005f82015250565b5f62008090601583620073ec565b91506200809d826200805a565b602082019050919050565b5f6020820190508181035f830152620080c18162008082565b9050919050565b5f81519050620080d881620072d2565b92915050565b5f60208284031215620080f657620080f562007260565b5b5f6200810584828501620080c8565b91505092915050565b5f67ffffffffffffffff8211156200812b576200812a62007b94565b5b620081368262007426565b9050602081019050919050565b5f6200815962008153846200810e565b62007bf7565b90508281526020810184848401111562008178576200817762007b90565b5b62008185848285620073fc565b509392505050565b5f82601f830112620081a457620081a362007745565b5b8151620081b684826020860162008143565b91505092915050565b5f60208284031215620081d757620081d662007260565b5b5f82015167ffffffffffffffff811115620081f757620081f662007264565b5b62008205848285016200818d565b91505092915050565b5f602082019050620082235f83018462007e31565b92915050565b5f81519050620082398162007a84565b92915050565b5f6020828403121562008257576200825662007260565b5b5f620082668482850162008229565b91505092915050565b5f8160011c9050919050565b5f808291508390505b6001851115620082cc57808604811115620082a457620082a362007d69565b5b6001851615620082b45780820291505b8081029050620082c4856200826f565b945062008284565b94509492505050565b5f82620082e65760019050620083b8565b81620082f5575f9050620083b8565b81600181146200830e576002811462008319576200834f565b6001915050620083b8565b60ff8411156200832e576200832d62007d69565b5b8360020a91508482111562008348576200834762007d69565b5b50620083b8565b5060208310610133831016604e8410600b8410161715620083895782820a90508381111562008383576200838262007d69565b5b620083b8565b6200839884848460016200827b565b92509050818404811115620083b257620083b162007d69565b5b81810290505b9392505050565b5f620083cb8262007268565b9150620083d8836200760c565b9250620084077fffffffffffffffffffffffffffffffffffffffffffffffffffffffffffffffff8484620082d5565b905092915050565b5f819050919050565b5f67ffffffffffffffff82169050919050565b5f819050919050565b5f620084546200844e62008448846200840f565b6200842b565b62008418565b9050919050565b620084668162008434565b82525050565b5f602082019050620084815f8301846200845b565b92915050565b5f60c0820190506200849c5f8301896200764d565b620084ab602083018862007386565b620084ba604083018762007386565b620084c960608301866200735a565b620084d860808301856200735a565b620084e760a08301846200735a565b979650505050505050565b5f604082019050620085075f83018562007386565b62008516602083018462007386565b9392505050565b5f81519050919050565b5f62008533826200851d565b6200853f818562007f34565b935062008551818560208601620073fc565b6200855c8162007426565b840191505092915050565b5f6020820190508181035f83015262008581818462008527565b905092915050565b5f81905092915050565b5f6200859f826200851d565b620085ab818562008589565b9350620085bd818560208601620073fc565b80840191505092915050565b5f620085d6828462008593565b915081905092915050565b5f606082019050620085f65f83018662007386565b62008605602083018562007386565b6200861460408301846200735a565b949350505050565b5f604082019050620086315f83018562007386565b6200864060208301846200735a565b9392505050565b5f80fd5b5f80fd5b5f808585111562008665576200866462008647565b5b838611156200867957620086786200864b565b5b6001850283019150848603905094509492505050565b5f82905092915050565b5f82821b905092915050565b5f620086b283836200868f565b82620086bf8135620079d4565b925060048210156200870257620086fd7fffffffff000000000000000000000000000000000000000000000000000000008360040360080262008699565b831692505b505092915050565b5f6040820190506200871f5f83018662007386565b81810360208301526200873481848662007f44565b9050949350505050565b5f606082019050620087535f83018662007386565b6200876260208301856200735a565b6200877160408301846200735a565b949350505050565b5f620087858262007268565b9150620087928362007268565b9250620087c17fffffffffffffffffffffffffffffffffffffffffffffffffffffffffffffffff8484620082d5565b905092915050565b5f6060820190508181035f830152620087e3818662007436565b90508181036020830152620087f9818562007436565b90506200880a604083018462007386565b949350505050565b5f604082019050620088275f83018562007386565b81810360208301526200883b818462008527565b90509392505050565b7f4e487b71000000000000000000000000000000000000000000000000000000005f52601260045260245ffd5b6200887c81620074dd565b811462008887575f80fd5b50565b5f815190506200889a8162008871565b92915050565b5f60208284031215620088b857620088b762007260565b5b5f620088c7848285016200888a565b91505092915050565b5f606082019050620088e55f83018662007386565b620088f4602083018562007386565b620089036040830184620079ff565b949350505050565b5f63ffffffff82169050919050565b62008925816200890b565b811462008930575f80fd5b50565b5f8151905062008943816200891a565b92915050565b5f806040838503121562008962576200896162007260565b5b5f62008971858286016200888a565b9250506020620089848582860162008933565b9150509250929050565b5f819050919050565b5f620089b7620089b1620089ab846200898e565b6200842b565b62007268565b9050919050565b620089c98162008997565b82525050565b5f604082019050620089e45f83018562007386565b620089f36020830184620089be565b9392505050565b5f60a08201905062008a0f5f8301886200764d565b62008a1e60208301876200764d565b62008a2d60408301866200764d565b62008a3c60608301856200735a565b62008a4b608083018462007386565b9695505050505050565b5f62008a618262007268565b91507fffffffffffffffffffffffffffffffffffffffffffffffffffffffffffffffff820362008a965762008a9562007d69565b5b600182019050919050565b5f62008aad8262007268565b915062008aba8362007268565b92508262008acd5762008acc62008844565b5b828204905092915050565b5f62008ae48262007268565b915062008af18362007268565b925082820262008b018162007268565b9150828204841483151762008b1b5762008b1a62007d69565b5b5092915050565b5f62008b2e826200760c565b915062008b3b836200760c565b9250828201905060ff81111562008b575762008b5662007d69565b5b92915050565b7f4e487b71000000000000000000000000000000000000000000000000000000005f52603260045260245ffd5b5f81905092915050565b5f62008ba082620073e2565b62008bac818562008b8a565b935062008bbe818560208601620073fc565b80840191505092915050565b5f62008bd7828562008b94565b915062008be5828462008b94565b91508190509392505050565b5f819050815f5260205f209050919050565b5f6020601f8301049050919050565b5f6008830262008c437fffffffffffffffffffffffffffffffffffffffffffffffffffffffffffffffff8262008699565b62008c4f868362008699565b95508019841693508086168417925050509392505050565b5f62008c8762008c8162008c7b8462007268565b6200842b565b62007268565b9050919050565b5f819050919050565b62008ca28362008c67565b62008cba62008cb18262008c8e565b84845462008c12565b825550505050565b5f90565b62008cd062008cc2565b62008cdd81848462008c97565b505050565b5b8181101562008d045762008cf85f8262008cc6565b60018101905062008ce3565b5050565b601f82111562008d535762008d1d8162008bf1565b62008d288462008c03565b8101602085101562008d38578190505b62008d5062008d478562008c03565b83018262008ce2565b50505b505050565b5f82821c905092915050565b5f62008d755f198460080262008d58565b1980831691505092915050565b5f62008d8f838362008d64565b9150826002028217905092915050565b62008daa82620073e2565b67ffffffffffffffff81111562008dc65762008dc562007b94565b5b62008dd2825462007dfd565b62008ddf82828562008d08565b5f60209050601f83116001811462008e15575f841562008e00578287015190505b62008e0c858262008d82565b86555062008e7b565b601f19841662008e258662008bf1565b5f5b8281101562008e4e5784890151825560018201915060208501945060208101905062008e27565b8683101562008e6e578489015162008e6a601f89168262008d64565b8355505b6001600288020188555050505b505050505050565b5f60808201905062008e985f8301876200764d565b62008ea7602083018662007618565b62008eb660408301856200764d565b62008ec560608301846200764d565b95945050505050565b7f4e487b71000000000000000000000000000000000000000000000000000000005f52602160045260245ffd5b5f62008f07826200760c565b915062008f14836200760c565b92508262008f275762008f2662008844565b5b82820690509291505056fe60a060405260405161091b38038061091b8339818101604052810190610025919061065e565b610035828261007060201b60201c565b8173ffffffffffffffffffffffffffffffffffffffff1660808173ffffffffffffffffffffffffffffffffffffffff16815250505050610765565b61007f8261016060201b60201c565b8173ffffffffffffffffffffffffffffffffffffffff167f1cf3b03a6cf19fa2baba4df148e9dcabedea7f8a5c07840e207e5c089be95d3e60405160405180910390a25f8151111561014d576101478273ffffffffffffffffffffffffffffffffffffffff16635c60da1b6040518163ffffffff1660e01b8152600401602060405180830381865afa158015610117573d5f803e3d5ffd5b505050506040513d601f19601f8201168201806040525081019061013b91906106b8565b826102fb60201b60201c565b5061015c565b61015b61038160201b60201c565b5b5050565b5f8173ffffffffffffffffffffffffffffffffffffffff163b036101bb57806040517f64ced0ec0000000000000000000000000000000000000000000000000000000081526004016101b291906106f2565b60405180910390fd5b806101ed7fa3f0ad74e5423aebfd80d3ef4346578335a9a72aeaee59ff6cb3582b35133d505f1b6103bd60201b60201c565b5f015f6101000a81548173ffffffffffffffffffffffffffffffffffffffff021916908373ffffffffffffffffffffffffffffffffffffffff1602179055505f8173ffffffffffffffffffffffffffffffffffffffff16635c60da1b6040518163ffffffff1660e01b8152600401602060405180830381865afa158015610276573d5f803e3d5ffd5b505050506040513d601f19601f8201168201806040525081019061029a91906106b8565b90505f8173ffffffffffffffffffffffffffffffffffffffff163b036102f757806040517f4c9c8ce30000000000000000000000000000000000000000000000000000000081526004016102ee91906106f2565b60405180910390fd5b5050565b60605f808473ffffffffffffffffffffffffffffffffffffffff1684604051610324919061074f565b5f60405180830381855af49150503d805f811461035c576040519150601f19603f3d011682016040523d82523d5f602084013e610361565b606091505b50915091506103778583836103c660201b60201c565b9250505092915050565b5f3411156103bb576040517fb398979f00000000000000000000000000000000000000000000000000000000815260040160405180910390fd5b565b5f819050919050565b6060826103e1576103dc8261045960201b60201c565b610451565b5f825114801561040757505f8473ffffffffffffffffffffffffffffffffffffffff163b145b1561044957836040517f9996b31500000000000000000000000000000000000000000000000000000000815260040161044091906106f2565b60405180910390fd5b819050610452565b5b9392505050565b5f8151111561046b5780518082602001fd5b6040517f1425ea4200000000000000000000000000000000000000000000000000000000815260040160405180910390fd5b5f604051905090565b5f80fd5b5f80fd5b5f73ffffffffffffffffffffffffffffffffffffffff82169050919050565b5f6104d7826104ae565b9050919050565b6104e7816104cd565b81146104f1575f80fd5b50565b5f81519050610502816104de565b92915050565b5f80fd5b5f80fd5b5f601f19601f8301169050919050565b7f4e487b71000000000000000000000000000000000000000000000000000000005f52604160045260245ffd5b61055682610510565b810181811067ffffffffffffffff8211171561057557610574610520565b5b80604052505050565b5f61058761049d565b9050610593828261054d565b919050565b5f67ffffffffffffffff8211156105b2576105b1610520565b5b6105bb82610510565b9050602081019050919050565b5f5b838110156105e55780820151818401526020810190506105ca565b5f8484015250505050565b5f6106026105fd84610598565b61057e565b90508281526020810184848401111561061e5761061d61050c565b5b6106298482856105c8565b509392505050565b5f82601f83011261064557610644610508565b5b81516106558482602086016105f0565b91505092915050565b5f8060408385031215610674576106736104a6565b5b5f610681858286016104f4565b925050602083015167ffffffffffffffff8111156106a2576106a16104aa565b5b6106ae85828601610631565b9150509250929050565b5f602082840312156106cd576106cc6104a6565b5b5f6106da848285016104f4565b91505092915050565b6106ec816104cd565b82525050565b5f6020820190506107055f8301846106e3565b92915050565b5f81519050919050565b5f81905092915050565b5f6107298261070b565b6107338185610715565b93506107438185602086016105c8565b80840191505092915050565b5f61075a828461071f565b915081905092915050565b60805161019f61077c5f395f60bc015261019f5ff3fe608060405261000c61000e565b005b61001e610019610020565b61009a565b565b5f6100296100b9565b73ffffffffffffffffffffffffffffffffffffffff16635c60da1b6040518163ffffffff1660e01b8152600401602060405180830381865afa158015610071573d5f803e3d5ffd5b505050506040513d601f19601f82011682018060405250810190610095919061013e565b905090565b365f80375f80365f845af43d5f803e805f81146100b5573d5ff35b3d5ffd5b5f7f0000000000000000000000000000000000000000000000000000000000000000905090565b5f80fd5b5f73ffffffffffffffffffffffffffffffffffffffff82169050919050565b5f61010d826100e4565b9050919050565b61011d81610103565b8114610127575f80fd5b50565b5f8151905061013881610114565b92915050565b5f60208284031215610153576101526100e0565b5b5f6101608482850161012a565b9150509291505056fea2646970667358221220dadde62d43e94d15032b47a68a7863bb5a29dd6266f2fe2cecc5c80e6994d21c64736f6c63430008140033a264697066735822122055b285d4c274e940ce2701d8a3e969e8d9c91ca36be5ac1518c5a8ba96636cae64736f6c63430008140033","linkReferences":{"src/libraries/PrincipalTokenUtil.sol":{"PrincipalTokenUtil":[{"start":6414,"length":20},{"start":14070,"length":20},{"start":16906,"length":20}]}}},"methodIdentifiers":{"DOMAIN_SEPARATOR()":"3644e515","allowance(address,address)":"dd62ed3e","approve(address,uint256)":"095ea7b3","authority()":"bf7e214f","balanceOf(address)":"70a08231","beforeYtTransfer(address,address)":"4f72ec2f","claimFees(uint256)":"ac68a748","claimRewards(bytes)":"e190febc","claimYield(address,uint256)":"1869ebda","claimYieldInIBT(address,uint256)":"34b4ddc7","convertToPrincipal(uint256)":"25a8d87d","convertToUnderlying(uint256)":"1dc7f521","decimals()":"313ce567","deposit(uint256,address)":"6e553f65","deposit(uint256,address,address)":"2e2d2984","deposit(uint256,address,address,uint256)":"e4cca4b0","depositIBT(uint256,address)":"443b6aed","depositIBT(uint256,address,address)":"badfc074","depositIBT(uint256,address,address,uint256)":"2a412806","eip712Domain()":"84b0196e","flashFee(address,uint256)":"d9d98ce4","flashLoan(address,address,uint256,bytes)":"5cffe9de","getCurrentYieldOfUserInIBT(address)":"0e1b6d89","getDuration()":"ad2e8c9b","getIBT()":"c644fe94","getIBTRate()":"efd98dc2","getIBTUnit()":"1f2b4f24","getPTRate()":"a1c5b3e1","getTokenizationFee()":"abfa9446","getTotalFeesInIBT()":"4f5867a4","getUnclaimedFeesInIBT()":"714d422b","getYT()":"04aa50ad","initialize(address,uint256,address)":"c350a1b5","isConsumingScheduledOp()":"8fb36037","maturity()":"204f83f9","maxDeposit(address)":"402d267d","maxFlashLoan(address)":"613255ab","maxRedeem(address)":"d905777e","maxWithdraw(address)":"ce96cb77","maxWithdrawIBT(address)":"fb9b95dd","name()":"06fdde03","nonces(address)":"7ecebe00","pause()":"8456cb59","paused()":"5c975abb","permit(address,address,uint256,uint256,uint8,bytes32,bytes32)":"d505accf","previewDeposit(uint256)":"ef8b30f7","previewDepositIBT(uint256)":"05edf52a","previewRedeem(uint256)":"4cdad506","previewRedeemForIBT(uint256)":"68c1f7f6","previewWithdraw(uint256)":"0a28a477","previewWithdrawIBT(uint256)":"8a7c31fa","redeem(uint256,address,address)":"ba087652","redeem(uint256,address,address,uint256)":"9f40a7b3","redeemForIBT(uint256,address,address)":"b2afd5a3","redeemForIBT(uint256,address,address,uint256)":"85326f45","setAuthority(address)":"7a9e5e4b","setRewardsProxy(address)":"20b9353b","storeRatesAtExpiry()":"a13c91a3","symbol()":"95d89b41","totalAssets()":"01e1d114","totalSupply()":"18160ddd","transfer(address,uint256)":"a9059cbb","transferFrom(address,address,uint256)":"23b872dd","unPause()":"f7b188a5","underlying()":"6f307dc3","updateYield(address)":"f90d63db","withdraw(uint256,address,address)":"b460af94","withdraw(uint256,address,address,uint256)":"a318c1a4","withdrawIBT(uint256,address,address)":"0077e146","withdrawIBT(uint256,address,address,uint256)":"65edd064"},"id":139}